:020000040800F2
:10000000B0170020D5000008FD1A00088918000864
:1000100000000000000000000000000000000000E0
:10002000000000000000000000000000011B0008AC
:100030000000000000000000FF1A0008031B000879
:100040000501000805010008050100080501000878
:100050000501000805010008050100080501000868
:100060000501000805010008050100080501000858
:100070000501000805010008050100080501000848
:100080000501000800000000000000000501000854
:100090000000000005010008050100080501000836
:1000A0000000000005010008050100080501000826
:1000B0000501000800000000310300084531000878
:1000C0000348854600F064F800480047F93100080D
:1000D000B01700200C4880F308880C480168090E0E
:1000E0000B4A914205D10B480B4901600B480C4962
:1000F00001600C4880470C480047FEE7FEE7FEE73A
:10010000FEE7FEE7FEE70000B01700200400000055
:100110001F00000018100240010000000000014014
:1001200000000000A11B0008C1000008D2B201E0DD
:100130000270401C491EFBD270470022F6E710B542
:1001400013460A4604461946FFF7F0FF204610BD45
:1001500070B50446002903D000202022012310E0BE
:10016000002801D00020C043C046C0460DE025460F
:10017000D5408D4205D30D469540641B1D469540E4
:1001800040191546521E002DF1DC214670BD0000BD
:10019000064C0125064E05E0E36807CC2B430C3CDA
:1001A00098471034B442F7D3FFF78EFFF0320008BF
:1001B0001033000870B58C180578401C6B075B0F76
:1001C00001D10378401C2A1106D10278401C03E0BB
:1001D00006780E70401C491C5B1EF9D12B0705D414
:1001E0000023521E0DD40B70491CFAE70378401C03
:1001F000CB1A921C03E01D780D70491C5B1C521E2B
:10020000F9D5A142D8D3002070BD0000B0B5212897
:1002100018D0202827D108784A78120210188A7836
:10022000CB781B029A18120410188A79CB790C79B2
:1002300049790E4D090209191B029A181204511826
:1002400003C510E009480268406808710A70030E8F
:10025000CB71030C8B71000A4871100EC870100C22
:100260008870100A48700020B0BDC0468001002090
:1002700000207047B0B52D4C0549002520462A4680
:1002800001F099FD0349204601F08DFD2846B0BDDF
:10029000080A002020060020B0B504460C4D284670
:1002A000214601F080FD284601F05EFD20783228CD
:1002B00004D0332809D162240BA001E0612405A0F9
:1002C000102100F01DF80D4804700020B0BDC0469C
:1002D000F00D0020555342322041637469766174F9
:1002E00065640D0A000000005553423320416374D9
:1002F0006976617465640D0A0000000088010020C1
:1003000010B50A4601465720C000084B18588523EF
:100310009B00C058002801D0012010BD034C20468E
:1003200001F049FD204601F0A6FD10BDF00D0020B2
:1003300080B5024800F0FCF880BDC046D401002022
:1003400070472022825C521E012A03D800681430B4
:10035000002202E001229104243003680B43036071
:1003600010467047FFB50246012015682023D35C74
:100370005B1E012B28D84002281803680122134372
:1003800003604E691F24344002921346A340C4699F
:100390009C43C461DC430394CF69012F19D0002F23
:1003A00032D1C768039C2740C760F700EC1901945D
:1003B0008C88CF683F04E41900940927BF01019C91
:1003C000009AE2510F4616E08104536A0B435362D0
:1003D00037E0C4681C43C460F4002C1901948F8872
:1003E0000C6824043C1900940927BF01019C009A61
:1003F000E2510F460C37F4002C193D888E68360404
:10040000AD199126B600A55145688C69002C01D024
:100410001D4301E0039C2540456045690C69002CA3
:1004200001D01D4301E0039C25404561096A012973
:1004300002D1C1691943C1610168029A9143016007
:10044000002004B0F0BD7047FCB52024055D6D1E92
:10045000012D04D80668002905D0356904E0012182
:100460008B0424305EE0F568AD0711D00194009153
:100470000C0136191B273F01F15904250D409560E9
:10048000F119F759002D07D10D46790D116006E0DD
:10049000243001214B0545E00D46F90851602946FD
:1004A000296802250D40D5606D21890075580F27F8
:1004B0002F40176175582D0AEDB295617158090CDE
:1004C00051613721C90072581A70026812195258C6
:1004D000120A5A70026812195258120C9A70026865
:1004E00012195158090ED970016809196F2292002A
:1004F00089581971016809198958090A59710168DF
:1005000009198958090C9971016809198958090E46
:10051000D97100680099002901D0103000E00C303A
:100520000021019B02681A4302600846FCBD0000DE
:10053000F0B589B004460068476941680391866850
:10054000C268016904910125E90305912904079115
:100550006904069181690291F90702D1002008908F
:1005600040E000210891F10715D08560B00708D45C
:1005700070070CD430070CD42046019200F00FFA1B
:1005800003E02046019200F00BFA019A03E0E80232
:1005900000E028030890F00515D52802216888603E
:1005A000B00505D52046019200F0FCF9019A0AE059
:1005B000700501D5680303E0300500D499E0A80375
:1005C000089909180891079806420BD0014620683F
:1005D00081600698064200D17BE02046164600F076
:1005E000E3F93246039E380708D5D00606D52068C1
:1005F0001021C1606802089901430891780707D566
:10060000100705D520680821C160204600F052F986
:10061000B80706D52068C068800702D0204600F0E1
:100620004BF9780609D50498C00606D52068102134
:100630000161A802089901430891B80608D50498F9
:10064000000705D5206808210161204600F078F9EF
:10065000F80606D520680069800702D0204600F021
:1006600070F90698074207D0F00605D520681021DA
:100670004160204600F066F90798074207D030072E
:1006800005D5206808214160204600F08EF90598C4
:10069000074203D0700703D408983DE008983EE075
:1006A000390A029A11400720084008990843390581
:1006B00032D570210A402FD0103A1209052A27D8C6
:1006C0007A4412795200974402191B1D1F210822F7
:1006D0001DE0700306D4300307D42046164600F010
:1006E00062F97EE70898059901E0089807990843A0
:1006F00035E72046019200F054F957E7102206E052
:10070000202204E0402202E0802200E02A0210437E
:10071000226893698B439361216804224A60002810
:1007200005D0616A014361622046FFF78CFE09B083
:10073000F0BDF8B500281BD004462027C05D002876
:1007400002D1204600F076F826462036206801685F
:1007500002229143016000F005FA054620684168D5
:10076000890707D500F0FEF9401B0B28F6D312E0ED
:100770000120F8BD0168012200921143016000F0E0
:10078000F1F9054620684168C9070BD100F0EAF984
:10079000401B0B28F6D301204104626A0A436262BF
:1007A000052145E0217E491E4A424A41D1010268A5
:1007B00080239A4351180160617E491E4A424A4192
:1007C0009101026840239A4351180160A17E491E9D
:1007D0004A424A4151010268BA4351180160E17E20
:1007E000491E4A1E91410901026810239A4351187B
:1007F0000160217F491E4A424A41D1000268082314
:100800009A4351180160617F491E4A424A41910052
:10081000026804239A4351180160271DAECF134389
:100820002B433B43491E1943C1610020606200997C
:100830003170F8BD70B586B0044601A81421FFF7E9
:100840007CFC2068194988422ED10126700618497F
:100850008A6802438A608A68024000920098B50460
:100860000868284308600868284000900420059024
:1008700000240394022002900320049000020190BF
:100880000098B34801A900F0A1F8284600F06EF9DD
:10089000F00400F06BF91E2528462146224600F0A0
:1008A000D5F9284600F0C6F906B070BD00640040D6
:1008B000141002407047000010B5164C002121634F
:1008C0002246303223461033FFF7BEFD207C02283B
:1008D00006D16120207010A01021FFF711FD207CAF
:1008E000032805D16220207010A01021FFF708FD19
:1008F000FF201230216B81420BD195480821002442
:10090000224600F027F90920C0060221224600F005
:1009100021F910BD880100205553423220416374F3
:100920006976617465640D0A000000005553423316
:10093000204163746976617465640D0A00000000EB
:10094000704770477047F8B504462020205C0128A6
:100950001BD1274620370220387020680168012506
:10096000A943016000F0FEF8064620684068C00711
:1009700011D000F0F7F8801B0B28F6D36804616AE9
:10098000014361620520387007E00125E804616ACF
:100990000143616201E0002565622846F8BD7047A9
:1009A000704770477047704770477047B0B504464E
:1009B00000F0D8F80546601C02D091480078041970
:1009C00000F0D0F8401BA042FAD3B0BDF0B589B01A
:1009D00003915B490790884201D0052000E0022086
:1009E0000090002406942646039D28680146F140A5
:1009F00000D1A2E001230593B340184000D196E056
:100A0000019004946C68122C65D8059DA5404E4950
:100A10000D4260D00327069A97400296079EB5685C
:100A2000BD430398C16891402943B1602109029AEE
:100A3000914075689D430D437560029EFF437300AE
:100A4000079AD168394085689D400D43D5601021D3
:100A50002143122910D11C21049C21400F248C40D9
:100A6000F508AD00079A55190246286AA043146993
:100A70008C4004432C625468079A1068384003275E
:100A800021463940994001431160E000039D049CD8
:100A9000019A4CD566490868059B184308600868A8
:100AA000184008900C2323400F2098403146B9434A
:100AB000089C264D4C5984434F190920C0060799BC
:100AC00081420FD0224807998142009D03981D4919
:100AD0000BD1059D09E0032306998B40DF430B46AC
:100AE0000398ADE70025039816499D4025433D60D6
:100AF0000C684368D80301D5144300E094430C60AC
:100B00004C68980301D5144300E094434C608C6812
:100B1000D80201D5144300E094438C60CC6898025D
:100B200001D5144300E09443039DCC60049C241D34
:100B30000699891C0691761C57E709B0F0BDC0469E
:100B400000080048000401400600060008000140BB
:100B500000040048002A01D0182200E02822815019
:100B6000704700000E4800687047C04681B03049A9
:100B70000A6801231A430A60096819400091009924
:100B800002490A6802430A6001B070470000014050
:100B90001B48007802490A68101808607047C04670
:100BA000A813002010B50648016810220A4302600D
:100BB0000024204600F006F800F026F8204610BD7C
:100BC0000020024070B504467D20C0000C4E3178F4
:100BD000FFF7BEFA01460B480068FFF7B9FA00F0CC
:100BE00039FE0125032C08D8002806D10025E8434A
:100BF00021462A4600F02AF87460284670BDC04697
:100C0000000000202400002082B009480168012271
:100C10001143016001681140019101991107426877
:100C20000A434260406808400090009802B0704754
:100C300018100240002805D41F21084001218140DE
:100C4000014801607047C04600E100E080B502F055
:100C5000B3FA80BDF0B502685423D15A0124214370
:100C6000D15217214D0100214155D65A0227374351
:100C7000D752401984600846F0BD7047B0B52824AB
:100C80000D0605D5072529404C430019283004E0FE
:100C90004C4300192D21C9004018002A02D083605E
:100CA000012101E0C380002101730020B0BD80B5A7
:100CB0002F221201835828224A438018C26B1846FB
:100CC00001F01DFA80BD80B52F2212018358282221
:100CD0004A4380185F2292008258184601F070FA49
:100CE00080BD10B507220A4009060AD428215143C5
:100CF0004118FF236A330024CC542D23DB00C9188C
:100D000006E028215143411829230124CC542831DD
:100D10000A705522D200835C012B01D1022010BD44
:100D2000841801222270006801F0B6FE00202070B5
:100D300010BDB0B50F220A4043689A4201D9012480
:100D400026E007220A4009060AD428215143411807
:100D5000FF236A330024CC542D23DB00C91806E09E
:100D600028215143411829230124CC54283100243F
:100D70008C700A705522D200835C012B01D10224B1
:100D800006E0851801222A70006801F00BFF2C7024
:100D90002046B0BD07220A40282151434018612156
:100DA00089004058704770B507240C4009060AD4E2
:100DB000282161434118FF256A3500264E552D250F
:100DC000ED00491906E02821614341182925012633
:100DD0004E5528310A61CB700C704A78002A00D039
:100DE000CC81022B01D100220A715522D200835CF2
:100DF000012B01D1022070BD8418012222700068ED
:100E000001F040FD0020207070BDB0B507240C40FB
:100E10002821614341182D25ED004C554919002426
:100E20000D4614351CC54C70006801F00DFF2046BE
:100E3000B0BD10B507220A4043689A4201D901208B
:100E400010BD0B060AD428234B43C118FF236A3375
:100E50000024CC542D23DB00C91806E0282151437F
:100E6000411829230124CC5428310A7001228A70A8
:100E70005523DB00C45C012C01D1022010BDC41835
:100E80002270006801F0C4FE0020207010BDF8B58B
:100E900007240C4028252946614341184C26012788
:100EA0008F554C558B64283100240D4614351CC5D4
:100EB0004F70006801F0C8FE2046F8BDF0B591B053
:100EC0000446172004902068012631020691B102E1
:100ED0000E91F1020891B103099102F03BF900046F
:100EE000109400D4F2E22D20C0000B901099081845
:100EF00003900196F0030F900846243007902B20B2
:100F00000A90000108180290109800684421415E80
:100F1000002900D4D8E2014644310B880F271F4036
:100F20004FD0BA00865A0F9B1E4200D15AE1821858
:100F30001388EB4C234080241C43148028227A43DE
:100F4000109B9C180B9AA5185D229200A25C002AA7
:100F50000D9600D182E0FF226C32A25C022A0C9531
:100F600000D090E08A8929780591CB0009990E423A
:100F700000D1DEE00321C90165580E9E3618B21873
:100F8000D2185688F14A1640AA1B00D2002262509D
:100F9000B54207D805998900425AED4B1A40ED4BEE
:100FA0005A4042520D99490608D505998900425A7E
:100FB000E54B1A400F9BC03313434352002E7AD1A6
:100FC000DDE00288DB062BD4DF4B1A400F9B1A436F
:100FD00002800E9A101889894018079C2179C9004F
:100FE00040184288D9490A4010984264C16B891858
:100FF000C16300263146FFF75AFE2078002883D0CF
:101000001098006C002800D07EE7079B187880219C
:101010000143C8B2109909684C2288521E7073E7C8
:10102000089B1A424AD00E9A121889895118039CBB
:101030002278D2008918CB88C4490B40E361E2884A
:10104000029902F08AF8109803681988BE4A114084
:1010500080220A431A8000F0CAFB55E70E9A121844
:10106000898951182A78D2008918CE88B7490E404C
:101070005DD0B7214900625A5F218900615833462B
:1010800002F06BF88FE02A789300C65AAE4D2E40DE
:101090000F9DC0353543C552C35AD2008989AC4D26
:1010A000F1352B426DD00E9B1B189A1851184E88A3
:1010B000A6490E4063D0049909016CE00F9B1A42C7
:1010C00000D121E70288A04B1A40802313430380FC
:1010D0000E9A1218921D89895118039C2378DB00FF
:1010E000CB5A9A490B40E36112D0616900290FD0B5
:1010F000E28802F032F8E069616908186061002155
:10110000109D2846FFF7DFFD28680E9909188A1DF3
:10111000019E5021415A2369002B00D137E13E2B1B
:1011200000D93AE15C083340E3189B023DE1002618
:1011300039E00321C90165580E9E3618B218D2183D
:10114000D688824A1640AA1B00D200226250B542BD
:1011500007D805998900425A7D4B1A407D4B5A4069
:1011600042520D99490608D405998900425A764B96
:101170001A400F9BC03313434352002E09D100265F
:1011800010E00E9B1B189A185118CE886F490E401C
:10119000F5D0B9214900625A5F2189006158334670
:1011A00001F0DBFF0C9D612080002158891921503E
:1011B0005F2080002158891921500320C001205848
:1011C000002804D02F20C0002058B04204D929782C
:1011D0001098FFF778FD04E010980068294601F0A8
:1011E00033FD0D9E300600D48EE678004100109C41
:1011F0002068425A544B1A400F9B1A4342522821EE
:10120000794362180A99515C17462837022946D15A
:1012100006990E4243D050213346465A014650317A
:1012200005913978CC000D935B060C945AD40E9B33
:101230001B1800939B191B19DE88444B1E40146C2D
:10124000A31B00D200231364B44200D884E0099B9E
:101250000D9C1C4206D18900435AF74C2340F84CA0
:10126000234343524C21515C012900D01FE1D16B33
:1012700089190D91D163536C9B195364916B956CD3
:10128000144648348D4200D397E013464C33002176
:10129000002D00D1BDE0197021602E46BAE050212A
:1012A000415A0E9B1B185B183978CC001B195B88C0
:1012B000E04C2340146CE51A00D2002515649C42D2
:1012C00009D9D16BC918D163516CC9185164394619
:1012D00001F0BAFC18E61098FFF7E9FC14E6C046E6
:1012E0000F0F00000E9B1B1800939B191B195E88A3
:1012F000D04B1E40146CA31B00D200231364B442D5
:1013000032D9099B0D9C1C4206D08900435ACA4C15
:101310002340CB4C234343524C21515C012900D044
:10132000C5E0D16B8B19D363516C89195164946BEF
:10133000956CA5420D9345D213464C33002119708C
:10134000002D0C9C41D144E00F0F0000FF03000072
:101350000F3F000080A000001098FFF7A8FC09983C
:101360000D99014208D0A2E01098FFF7A0FC09985F
:101370000D99014200D19AE01098006839788900EF
:10138000425AAD4B1A40AE4B1A4342528FE08B5A31
:10139000AC4C23408B528B5A05E0DC065B09002CD9
:1013A00000D15B1E9B020F9C23438B520188A34AF2
:1013B0001140A54A51400180A6E56B1A23600C9BA1
:1013C0000E4628E0291B25460C9C1346483319601D
:1013D0002E462921515C012913D0002953D1022125
:1013E0000C4300990C1905990B88002E33D03E2E22
:1013F0003FD83146019D2940750869188902195363
:1014000041E002210C4300990919059B1B88CE522B
:1014100039E019700C9B0D992924145D012C12D010
:10142000002C40D106210B430099CC1805990B885C
:10143000002E17D03E2E2AD83146019D294075082E
:10144000691889022DE006242343009CE418059BBB
:101450001B88E65227E0195B25467A4C21405953F8
:10146000595B0DE0195B0C96764E31401953195BB0
:1014700014E0F5067109002D00D1491E89022546A8
:101480000F9C21435953128EB3B20D990DE0F5060E
:101490007109002D00D1491E89020C960F9E31431F
:1014A0000C9E19530D99528EB3B201F072FE109832
:1014B000006839788900425A5F4B303313400F9AE5
:1014C000B0325A4042521FE5019E01E01098006878
:1014D00001F040FE0E9908420DD0109C2068442176
:1014E000425A5A4B13404352204600F041F9002122
:1014F000204600F068F9109C206801F02BFE0146A0
:101500002068099A114205D04421425A504B813B30
:101510001340435204994C0101F01CFE01461098FF
:101520000068890404D54421425A4A4B134043526F
:10153000109D2C1901F00EFE01462868C9041AD529
:101540004021425A04239A434252425A08239A4362
:1015500042522078012804D1002121701098FFF711
:101560008CFB109D284600F015F928684421425A4A
:10157000394B1340435201F0EDFD0899084213D056
:10158000109800684021425A0823134343520246F0
:1015900040329388314D1D409580425A04231343B5
:1015A0004352109800F044F91098006801F0D2FD01
:1015B000000620D5109800684421425A80239A439F
:1015C00042522178002903D0109800F031F912E03E
:1015D0004030018804220A430280018808220A431D
:1015E00002802670808A80083C210140616010984A
:1015F0003146FFF742FB1098006801F0ABFD800513
:1016000008D5109804684421625A154B1340635260
:1016100000F0D2F81098006801F09CFD069908428D
:1016200006D0109800684421425A0E4B1340435292
:1016300011B0F0BDFF0300000F0F00000F3F0000CE
:1016400080C00000FF83000080B00000FFFB0000AE
:1016500080C0FFFFFFDF0000FFEF0000FFF700008A
:10166000FFFD0000FFFE0000F0B589B000285CD04F
:1016700004465520C00026187078002804D10020A8
:101680003070204600F056F82046243008900320A1
:101690007070206801F07CFA61680020C2B291424B
:1016A0000FD928231D4655436519E8542835EA818A
:1016B00001226A7000222A616A61AA61EA70401CF4
:1016C000ECE70020C2B291420ED928235343E2181E
:1016D0002D23DB00D054D218002313615361936192
:1016E000D3705370401CEDE7A0680590E068069049
:1016F000256907966669A769E269236A20680095EB
:101700000196029703920493059A069B01F036FA1C
:10171000002508980570012007994870E0690128A4
:1017200004D12046FFF796FA00E00125284609B0CB
:10173000F0BD00001CB500680B49884200D01CBDFC
:101740000120C00509490A6802430A60096801408E
:10175000019101981F24002120460A46FFF776FADE
:101760002046FFF767FA1CBD005C00401C100240D9
:10177000B0B504468068022801D0FEF7E1FD2F20B5
:1017800005016059012100F009FE605900F0C6FD15
:10179000B0BD000010B504468069002806D02C4872
:1017A000016806229143016000F0B0F92F2000018A
:1017B000205800F0DBFD10BD80B52F2109014058F5
:1017C00000F0DEFD80BD10B55522D200835C012BF8
:1017D00001D1022010BD841802462432117001226A
:1017E0002270006801F0CEFC0020207010BD80B592
:1017F0002F21090142582B2109014118104600F000
:10180000D9FD80BDB0B504465520C000215C01293A
:1018100001D10220B0BD251801202870206801F0F8
:1018200085FC206801F0A2F900202870B0BD0000FE
:1018300010B504462F200001205800F0FDFDA069DE
:10184000002804D00248016806220A43026010BD45
:1018500010ED00E0401E010E01D001207047074945
:10186000074A5060074803680B400321890759184D
:10187000016000209060072111607047FFFFFF00AA
:1018800010E000E020ED00E0FEE7B0B552000023DC
:101890009A420ED0450F040F052D01D3373400E0D6
:1018A0003034CC5401241C4300250D559B1C0001F1
:1018B000EEE7B0BD81B005490A6802430A600968D5
:1018C00001400091009801B07047C04614100240DA
:1018D000FEB5002700910C682346FB404AD0012545
:1018E000BD40254044D04A680192531E022B029706
:1018F0002B4613D26B438E685E4303275F43826897
:10190000BA43324382600099CA6862434668A6437C
:1019100016434660FC43029F009903E06B43032497
:101920005C43E4430A695A43C66826401643C660CE
:10193000019A022A16D12E0A01D0242200E0202288
:101940004F698558002E114602D07643764301E058
:101950001E465E430F227243954377432F43475001
:101960000099029F4A685343026822401A4302606A
:101970007F1CB0E70020FEBD014908607047C046EB
:1019800024000020F0B58BB06820184E0027375295
:101990000320174901231A051D4600938304F164AF
:1019A00030657765B765F3653266776634464C34E3
:1019B0002046FEF7BEFE08950797069701AD142155
:1019C0002846FEF7BAFB0A97009809902046294658
:1019D000FEF7C8FC2C2037540820B7610099F1614C
:1019E00037627762B0620BB0F0BDC046880100205C
:1019F00000640040F0B58BB000270A970124600412
:101A0000FFF758FFA004FFF755FF0920C606022084
:101A1000B06208210491B16210220192B2622022C8
:101A20000392B2621E4A91620997089705A991C173
:101A300005AD1C4A30462946904709970897032070
:101A40000290079006940498059030462946154A5E
:101A50009047099708970797069401980590304694
:101A60002946104A90470F4A099708970797069406
:101A700003980590304629461646904709970697E1
:101A8000059407482946B047099708970298079098
:101A900006940498059002482946B0470BB0F0BD63
:101AA00000040048D118000880B5104810490022F1
:101AB00000F0FCFA002801D0FEF742FC0B480D496B
:101AC00000F0E0FC002801D0FEF73AFC07480A4984
:101AD00000F060F9002801D0FEF732FC034800F066
:101AE000E8FC002801D0FEF72BFC80BDF00D0020A3
:101AF00008000020280000204C010020FEE770476D
:101B0000704780B5FFF744F880BD000010B521494B
:101B10000A68012002430A600A68D207FCD0010467
:101B20001D4C226B0A432263216B8903FCD57B2168
:101B3000C90322688A430321C90351182160A16A9D
:101B400001430E229143A1620206211F0B68134339
:101B50000B600A689201FCD52168F0229143216054
:101B60000721090222688A432260216802220A436F
:101B70008243226020680C2101400829FAD10748DD
:101B8000FFF7FAFE0020FFF71DF8E06A8021884386
:101B9000E06210BD0020024004100240006CDC0234
:101BA0007047F8B50C4605465720C1006F58002F06
:101BB00014D0142060432E18F069002809D0691849
:101BC0008968282262438918896BFEF7C1FA0029C7
:101BD00006D08520800000263E500BE0022609E05A
:101BE0001C363046002606602846214632463346DB
:101BF00000F02BFC3046F8BD70B504465720C600F7
:101C0000A559204600F01CFB832189006850A0598B
:101C100000280AD0A21969188120800028180068BD
:101C20005268D2689047002070BD022070BD00004D
:101C300070B5044681210E4EB0470025E5620121B2
:101C40002046B0475B208000255082212046B047C7
:101C500025645720C0002158002907D02418606847
:101C600040688047206800F007FE2560002070BDB6
:101C7000ED20000810B55721C90042185368002B09
:101C80000BD04158012040020C182078FF2804D0C6
:101C900062789B689847FF202070002010BD0000EC
:101CA0000A21018000487047E8000020432101809C
:101CB00000487047600000204321018000487047C1
:101CC000A40000204321018000487047F400002058
:101CD000FEB50446007C012677020028009700D05C
:101CE0004027812102910222019220463B461D4D50
:101CF000A847E66220463146019A3B46194DA8475F
:101D00005B20800026508221032208232046A8471A
:101D10002664029880000290183000F0AFFD572131
:101D2000CD00605187218900FEF707FA6759002F1F
:101D300015D060194068006880470299781800261D
:101D400006618660C6604661207C0028009B0846CC
:101D500000D040233A580121204600F0D6FA304600
:101D6000FEBDC046F322000810B55721C9004258F5
:101D7000002A05D0037C0121002B03D0402302E080
:101D8000022010BD4B028124A400125900F0BDFABC
:101D9000002010BD002904D0AF2292008150002005
:101DA0007047022070475722D2008058812292004B
:101DB0008150002070475723DB00C0584123DB00CF
:101DC000C150C018826000207047FEB50E4605461F
:101DD0005720C0002F5802A80024047001A80480D6
:101DE000A7208000291830786022024011D0202AD4
:101DF0003AD1F288002A19D000061FD401204002EF
:101E000038184270717801702846394600F074F82D
:101E10002FE070780B281AD00A281CD0002823D174
:101E20000878032820D101A9022219E07078096AF4
:101E30008B6800243146224698471AE07078096A78
:101E40008B6839469847F2882846394609E0087871
:101E500003280ED008E00878032805D102A9012242
:101E6000284600F068F804E02846314600F03AF8C9
:101E700002242046FEBD10B55721C9004158002953
:101E800008D04122D20013460C33CC58002C03D08A
:101E9000012010BD022010BD0124CC508B189B687E
:101EA00003638A589BB2812100F0CFFA002010BD55
:101EB00080B5AD229200825852689047002080BDC4
:101EC00010B513460A460024214600F01EFA2046AB
:101ED00010BD10B513460A460024214600F0B5FA9D
:101EE000204610BD10B50446802100F093FA002171
:101EF000204600F08FFA10BDB0B513460A465721B0
:101F000089004350A524A4000325055141184B60C6
:101F10000024214600F0F9F92046B0BD10B5A521F6
:101F2000890005224250002421462246234600F023
:101F3000ECF9204610BD10B513460A46A5218900CC
:101F400002244450C36103620024214600F07DFA5C
:101F5000204610BD10B5A52189000422425000245E
:101F600021462246234600F070FA204610BD0000AC
:101F700010B50A4603A0284C214600F069F8204617
:101F800010BDC04643444320436F6E66696700003E
:101F900012200880004870473801002010B50A461A
:101FA00003A01D4C214600F053F8204610BDC0464A
:101FB00043444320496E74657266616365000000A6
:101FC00004200880004870475C01002010B50A46D4
:101FD00003A0114C214600F03BF8204610BDC0463E
:101FE00053747279782E496E6300000010B50A466A
:101FF00003A0094C214600F02BF8204610BDC04636
:102000005553422050726F746F636F6C2043686148
:102010006E6765720000000000020020B0B51A2053
:102020000880094908688A6810180BD04C68074D69
:10203000A91C0822FFF729FC123504222046294654
:10204000FFF723FC0148B0BDACF7FF1F6001002083
:10205000B0B500281CD0002304462578002D02D0FE
:10206000641C5B1CF9E7DBB25B009B1C13800B70EC
:10207000022203240123CC540378002B08D0D4B2CD
:102080000B5501231343DBB2921C401C0024F2E7E2
:10209000B0BD0000032804D8C0000349C140C8B245
:1020A000704702207047C0460002010210B50028A8
:1020B00011D0A7239B00C3189C69002C01D00024D9
:1020C0009C61002900D0596102700121197000F053
:1020D000BFF8002010BD022010BD80B50B22920178
:1020E0008058FEF726FEFFF7D5FF80BD80B50B2296
:1020F00092018058FEF7F5FDFFF7CCFF80BDF8B5E3
:102100000446A5208000271800290AD0386A4269B1
:102110000220002A2AD03B7A032B27D12046904761
:1021200023E03868002816D0042814D0022816D1DD
:10213000206A656AA8421AD9401B206283B22046F1
:1021400011461A46FFF7C5FE002120460A460B46F7
:1021500000F0DBF803E08021204600F05BF9387BDB
:10216000012802D100203873F8BD0020F8BDE669CF
:1021700030462946FDF7ECFF002910D1AE420ED3C0
:10218000786886420BD20025204629462A46FFF76A
:10219000A0FE7D60204629462A462B46D8E7386AAD
:1021A000C168002904D0387A032801D12046884725
:1021B0008021204600F02EF92046FFF7AFFECEE743
:1021C00070B50546A5208000281800290BD0026AAA
:1021D00092690224002A31D0007A03282ED12846A1
:1021E000904700242AE001680024052914D003291F
:1021F00024D10B2149016B181E6859688E4211D9F0
:10220000701A1860884200D3084683B228461146E7
:102210001A46FFF755FE11E004602846214600F0FB
:10222000F9F80BE0016A0969002904D0007A032853
:1022300001D1284688472846FFF78CFE204670BD0E
:1022400080B50B2292018058FEF7A4FD80BD0000EE
:10225000F8B50B218A011B4981502F231B01C8505F
:1022600000238B61CB610B6202230B610824164DA6
:102270000D604C608B6086180846FFF7F5F9002862
:1022800001D0FEF75DF83068002418230F4F214677
:102290002246B8473068802158232246B847306824
:1022A0008121C0232246B847306801210D022B4608
:1022B00010332246B8473068822122462B46B84761
:1022C0002046F8BDB4100020005C00407D0C0008E2
:1022D0007F220A40282353430B2292018058C018C2
:1022E000090601D52A3002E0B521490040180078DE
:1022F000704710B514460B22920180581A462346A7
:10230000FEF751FDFFF7C6FE10BD10B50B24A4016A
:102310000059FEF77AFDFFF7BDFE10BDF8B5044683
:102320000025402629462A463346FFF7E2FF2B20A8
:10233000C000012727502018C660802120462A4669
:102340003346FFF7D6FFA5208000255020180772DE
:102350006662A76105616560416A002904D0006A70
:1023600042680021204690470020F8BDA72189003F
:10237000425C042A02D14018417801700020704765
:1023800080B5A7218900425C032A05D141188969DB
:10239000C969002900D08847002080BD0174002051
:1023A000704780B50B2292018058FFF70CFAFFF7B7
:1023B00071FE80BDF8B50446A5208600A7193D46EC
:1023C0001435284600F04AF80120A0511048205A40
:1023D0007860397D1F200840022808D001280BD0E2
:1023E00000280ED12046294600F068F80EE020466D
:1023F000294600F07FF909E02046294600F013FA4B
:1024000004E080200140204600F004F80020F8BDE0
:10241000AE02000080B50B2292018058FEF709FD44
:10242000FFF738FE80BD80B50B2189014058FFF7CA
:10243000E9F9FFF72FFE80BDA7218900425C042344
:102440004354401842700020704710B50B24A4017B
:102450000059FEF71CFDFFF71DFE10BD0A78027043
:102460004A7842708A78CB781B029A1842800A799F
:102470004B791B029A1882808A79C97909028918D6
:10248000C1807047002904D0AD2292008150002005
:1024900070470220704780B5AD2292008258002A12
:1024A00005D012689047411E8841400080BD02203F
:1024B00080BD80B5FFF7B7FF002080BD7CB50D461D
:1024C0000446097860200840A72189006618002882
:1024D0000AD0402802D0202800D06FE0B06982687E
:1024E0002046294690476CE06878092866D8C0469F
:1024F00078440079400087440411611A61203A61F0
:102500004F5B3078401E022858D8E888022855D101
:10251000B068002800D1A4E00320A3E03078401E7A
:1025200002284BD8688801284BD1002003E0688836
:10253000012846D10120B060D3E0A88800283DD111
:10254000E88800283AD168887F2837D8317803296D
:1025500034D0B070C5B220462946FFF722FF20468E
:10256000FFF7F8FC002D00D1BFE00220BEE001A87B
:10257000002101806888010A491E06291ED8C0462C
:102580007944097949008F44032E341919414900CF
:10259000207C71690A688EE0E88801280ED13078C5
:1025A000411E02291AD20020A0602146083118E0FD
:1025B00068884F4D2870C1B2022904D32046FFF726
:1025C00091FC00207CBD3078032831D0022840D116
:1025D000002900D185E00320307033E00328EDD1DD
:1025E000211D012242E0B069217C002942D0C16A4C
:1025F00041E0C0B20528E1D8784400794000874422
:1026000002484B4E51547069426850E0207C0028CB
:10261000D4D1B069416B01A888474EE0207C0028E6
:10262000CCD1B069016B01A888470146072026E09C
:10263000002926D06068884253D0C1B22046FFF7F7
:1026400037FC297861602046FFF725FF0228B5D0C6
:1026500047E02046FFF746FC29782046FFF728FC94
:10266000AFE70120E06021460C3102222046FFF74F
:1026700062FCA6E7816A01A88847014602204870EB
:102680001CE000206060022030702046FFF710FC44
:1026900027E0706982680AE07069C26807E07069C3
:1026A000026904E07069426901E070698269002A88
:1026B00000D183E7207C01A99047014601A8028848
:1026C000002A0AD0E888002807D0824200D30246B8
:1026D00001A802802046FFF72EFCE888002800D0E1
:1026E0006FE72046FFF736FC6BE70120307068E7A4
:1026F000FC010020B0B50A4604460878602101407C
:10270000A72080002018002909D0402901D02029C5
:1027100066D18069836820461146984763E0117945
:102720005378002B14D0012B24D0032B58D10078E0
:10273000032822D15088002842D1802008438028D5
:102740003ED0D08800283BD12046FFF763FE37E01B
:10275000007803281FD0022842D180200843802817
:102760003ED17F20084014224243A31808063CD5DE
:1027700014333DE0007803281AD0022830D180209D
:10278000084380282CD02046FFF744FE80212046B5
:10279000FFF740FE27E00F230B4080200A46142558
:1027A0005D43631902400FD12B25ED005B590CE00E
:1027B0005088002817D1480602D02046FFF78DFC2C
:1027C0002046FFF7C7FB0EE09B69002B08D07F2354
:1027D0000B4014255D436519002A0FD0143510E015
:1027E0002046FFF77FFB0020B0BD552080001B185E
:1027F0000020186002222046194611E0552292005E
:10280000AD180843802801D1002005E02046FFF7DD
:102810005FFD0028F8D001202860022220462946CA
:10282000FFF789FBDFE7B0B50D4604460978602065
:10283000084003D0402801D020280AD1A7208000DA
:1028400020180178491E022903D8A9880906490ED3
:1028500004D02046FFF746FB0020B0BD80698268A7
:102860002046294690470028F6D1E8880028F3D171
:102870002046FFF76FFBEFE7704700000048704706
:1028800000040020F0B586B003460F78B8001E188B
:10289000185A7C4D0540C8780328049008D80022B7
:1028A000784400794000874401050B08012005E0C9
:1028B000012205E00120800201E0032040020543DF
:1028C000A94C254335803088CD4D284038432043DE
:1028D0003080087B002844D00392308805966A4EE9
:1028E00006406A483018059A108050201C5A0294FD
:1028F0000124A5025D19FF00EA190192E4430E8943
:1029000026400093029B019AD652059E009A105AC7
:102910003A1DAA184B8923401352C94A1346F13372
:1029200030881840497800293ED000288E4BB44C9E
:1029300004D030882040B4490143318030884006BB
:1029400005D530882040194640310143318030346C
:10295000308820400499012941D01946203148404F
:102960003EE05020185A0390FF00487800283FD0DE
:102970001446D819039A8018C988012291439202FB
:10298000815230884006784A05D530882840114663
:102990004031014331803035318829400498012885
:1029A000204646D1114320E000286F4B944C04D0C0
:1029B000308820409449014331803088400605D555
:1029C0003088204019464031014331803088104022
:1029D0008E494140318030343188214003E0184332
:1029E00030803188114019430398318006B0F0BD22
:1029F0000596042038430124A6029E1902965033FE
:102A000030180490C8880194A043039C049E30535E
:102A100006203843029C27180869198813460028A5
:102A20000AD03E2812D8019A02404008801882023B
:102A30000AE020325140D8E7C85B154A0240CA5329
:102A4000C85B494A803A0243059E09E0C206400934
:102A5000002A059E00D1401E8002434A803A02436C
:102A6000CA53318876480246F132114204D0318887
:102A70002940654A0A433280328802400549514064
:102A80001846B2E78F89FFFF0F0E0000808100001B
:102A9000FF83000080B0FFFF70B50A789200845A6F
:102AA00080184B780A7B3049002A21D0644A1546A9
:102AB000F1352C40002B28D0514B534D002C03D026
:102AC00004881C402C4304800488640605D50488CF
:102AD0001C400E4640362643068004881C402C438A
:102AE0000480303304881C400C430480134634E0D7
:102AF000002B27D0424A1346303364062DD5048874
:102B000014400A464032224326E03D4B002C04D0BC
:102B100004881C403C4D254305800488640605D587
:102B200004881C400D4640352543058004881C4020
:102B30000D46403525430580048814400C4304802D
:102B400030330AE03E4B1A46F132144205D0028877
:102B50002B4C14402C4AA218028002881A400A43C7
:102B60000280002070BDC046808000005821425A7B
:102B70000123DB031343435200207047402201210D
:102B80008152002181524030818001820846704785
:102B90004021425A024B1340435200207047C04626
:102BA0007F400000B0B50A7B002A27D10A78930045
:102BB000C25AC0184B78002B10D05206104B114A45
:102BC00005D504881C401546203525430580C97865
:102BD000012913D03033018819400DE018490B4604
:102BE000F1331A4205D00288054B1340064A9A1861
:102BF000028002880A400549514001800020B0BD92
:102C00000F0F0000A080000080C0000080B0000016
:102C100010B54B78002B01D0084A00E0064A002B83
:102C200001D0084B00E0064B09788900445A1C404B
:102C300054404452002010BD8090FFFF9080FFFF61
:102C40000F3F00003F0F0000F0B587B00D4604466F
:102C50004A78012A3ED12969A86988420F4600D8DE
:102C60000746287B002862D0E878022800D08DE053
:102C700028788300E218E35AF44E1E402B6A8B42F8
:102C800000D8C7E0F2490E431680D91B296212888A
:102C90005021615AC00026465036520600D510E138
:102CA00002221043012206929202A21804921018E6
:102CB000475269692A89BBB2204600F06AFA6869FE
:102CC000C1196961286A2A699042059100D911E108
:102CD000002310E1287B00283AD0E878012868D04A
:102CE000022800D094E0002A00D0BCE15020205AF5
:102CF000012291026118069109182B692746503765
:102D00000392D2032878C000861C002B0492059001
:102D100000D12FE1029608463E2B00D951E1194619
:102D2000039E31405A085118049A890251E1EA88F9
:102D30006969BBB2204600F02CFA5020205A2018B6
:102D40002978C900891C401801218902475273E083
:102D50002F69A869C11B00D20021A961B84200D81F
:102D600007465020205A201801239902411828783C
:102D7000C000821DE548E64E002F7FD03E2F00D9CF
:102D800085E03B407F08FB189B028BE02978880098
:102D9000225A5020205A5206C900002A4ED402223C
:102DA000114361180818012189024752284608304A
:102DB0004DE02969A869431A00D20023AB6188421B
:102DC00000D80146D148D24E002A00D095E15022C9
:102DD000A25A0127BB02E31804939B1822465032E3
:102DE00003920197FA0306922A78D700BA1C0029A9
:102DF0000297059200D1C8E000933E2900D902E174
:102E00000A46019B1A404F08BF18BF02009BC6E04C
:102E1000012079E1C4490E4316805021615AC00057
:102E2000801C2018401801218902435269692A89AF
:102E30009BB2204600F0ADF9B94E5CE10622114389
:102E40006118081801218902475228460A30696929
:102E50000288BBB2204600F09CF90120C6036978C5
:102E6000AD48012920D0002928D129788900625A4B
:102E70000346303B13403246C0321CE0505A0690A5
:102E8000A44F06980740A1485752575A08E0FE063B
:102E900006967F09069E002E00D17F1E9C4EBF0223
:102EA000DB033B43535228E129788900625A0346E9
:102EB000303B13409B4A1A43625200E0984EB036B2
:102EC0001BE106221043012206929202A2180492EC
:102ED0001018475269696A89BBB2204600F059F957
:102EE0006869C1196961286A2A699042059121D8E7
:102EF000002320E0C31B31462B62904200D80746D6
:102F00000698C603687801284BD0002800D0E2E07C
:102F10000888049908182A78D200921D002F00D141
:102F2000C5E03E2F00D9CEE0069939407B085B18FA
:102F30009B02CFE0C31B31462B62904200D807466C
:102F40000698C6036878012833D0002800D0CCE06A
:102F50000888049908182A78D200921C002F00D102
:102F6000ABE03E2F00D9B8E0069939407B085B18EA
:102F70009B02B9E0705A029008466649029A1140D5
:102F8000049A3152315A114324E0D25A0092614FCF
:102F9000009A1740059AD752D75A069A1743059AAE
:102FA0003BE00888049908182A78D200921D8752BD
:102FB00091E00888049908182A78D200921C875258
:102FC00093E0DA065909002A00D1491E049A8902C1
:102FD0001143029E31520621059808433988069E06
:102FE0007118002B07D03E2B34D8039E1E405A0880
:102FF0009219920236E01646425A464B134043520B
:10300000425A32432EE0CA064B09002A00D15B1E09
:10301000059A9F02069B1F43009BD7520627029AE0
:103020003A43039B1B88049FFB18002907D03E29C5
:1030300033D8019F0F404908C919890235E0D15A98
:10304000344F0F40D752D15A069F2DE00F0E00008B
:10305000808100001746DE065A09002E00D1521E5C
:1030600092023A434252E9692848294E002944D045
:1030700029788900635A40221A405B0402D4002A4E
:1030800002D03AE0002A38D06118234A303A0B883F
:103090001340224A9A180A802FE0CF064909002FD0
:1030A00000D1491E069F89023943D15225E0115AA9
:1030B000184B0B401352135A0BE0115A154B0B408F
:1030C0001352135A0FE0F9067B09002900D15B1E49
:1030D0009B02334313526A8908E0F9067B090029F1
:1030E00000D15B1E9B02334313522A89BBB2204698
:1030F000059900F04EF8B036074829788900625AE1
:10310000024072406252002007B0F0BD0F3F000045
:1031100080B00000FF8300003F0F0000C08000006F
:103120000080FFFF80C00000808000000246403227
:10313000002191804022024B835208467047C046CE
:1031400080BF000080B50248FDF7B8FE80BDC046D4
:10315000B41000204421405A704710B58018012255
:10316000920280185A08002A07D004880C70240A9A
:103170004C70521E891C801CF5E7DA0701D00088CC
:10318000087010BD002902D14C218022425200203B
:10319000704710B580180122920280185A1C5208FC
:1031A000002A08D00B784C782402E3180380891C8D
:1031B000521E801CF4E710BD002805D403220346EC
:1031C00093430C4A9A1806E00F220240083A032360
:1031D0009A43074BD2188007C00E8901C9B28140BB
:1031E000FF23834010689843084310607047C0462F
:1031F0001CED00E000E400E082B0FDF7D3FCFEF738
:1032000085FCFEF7F7FBFEF7BDFBFEF74DFC2D4CF2
:103210004C342046FDF797FB022101912046FDF733
:1032200090F80920C40608250127274E2046294684
:103230003A46B047254829463A46B04720460199C4
:103240003A46B047102120463A46B0472021002296
:1032500020460192B0471B490878622819D061289E
:10326000FAD108250127204629463A46B047174893
:1032700029463A46B047022120463A46B047102137
:1032800020463A46B0470A20FDF790FB2021002255
:1032900012E008250027204629463A46B0470B4849
:1032A00029463A46B047022120463A46B0470A200E
:1032B000FDF77CFB102101222046B047014901980F
:1032C0000870C9E788010020550B00080004004879
:1032D00002E008C8121F08C1002AFAD170477047DF
:1032E000002001E001C1121F002AFBD1704700003D
:1032F000103300080000002088010000B40100081D
:10330000D83300088801002028160000E0320008A9
:103310003201320413911F1B08C1041ACD041AEDA7
:1033200004131D201B0871081A9D041113127A132F
:10333000D11C1B0831041BCB1D10311A750C13A3B3
:103340001B1B08F904C11AB9181AAD041AC5041ACE
:10335000A104140902431302011CC03209661B01B7
:10336000020B130524161001052401100901042481
:103370000202052406170107058203081510090437
:103380000133020A2E0705010240072A81071109AD
:103390003744113A02441907112B0A0606112A4034
:1033A000F02B0907500A3B04941A12171302021E4D
:1033B00040830440574D1B0203591375021B0871CB
:1033C000041A0D041A9904071F040309041A032A96
:0833D000C29212080000000087
:04000005080000C12E
:00000001FF
