:020000040800F2
:10000000A0170020D5000008A51900080516000853
:1000100000000000000000000000000000000000E0
:10002000000000000000000000000000DF1C0008CD
:100030000000000000000000DD1C0008091D000891
:100040000501000805010008050100080501000878
:100050000501000805010008050100080501000868
:100060000501000805010008050100080501000858
:100070000501000805010008050100080501000848
:100080000501000800000000000000000501000854
:100090000000000005010008050100080501000836
:1000A0000000000005010008050100080501000826
:1000B0000501000800000000210300086136000867
:1000C0000348854600F064F80048004731370008CF
:1000D000A01700200C4880F308880C480168090E1E
:1000E0000B4A914205D10B480B4901600B480C4962
:1000F00001600C4880470C480047FEE7FEE7FEE73A
:10010000FEE7FEE7FEE70000A01700200400000065
:100110001F00000018100240010000000000014014
:1001200000000000751D0008C1000008D2B201E007
:100130000270401C491EFBD270470022F6E710B542
:1001400013460A4604461946FFF7F0FF204610BD45
:1001500070B50446002903D000202022012310E0BE
:10016000002801D00020C043C046C0460DE025460F
:10017000D5408D4205D30D469540641B1D469540E4
:1001800040191546521E002DF1DC214670BD0000BD
:10019000064C0125064E05E0E36807CC2B430C3CDA
:1001A00098471034B442F7D3FFF78EFF4C3800085D
:1001B0006C38000870B58C180578401C6B075B0F15
:1001C00001D10378401C2A1106D10278401C03E0BB
:1001D00006780E70401C491C5B1EF9D12B0705D414
:1001E0000023521E0DD40B70491CFAE70378401C03
:1001F000CB1A921C03E01D780D70491C5B1C521E2B
:10020000F9D5A142D8D3002070BD0000B0B5212897
:1002100019D0202828D108784A78120210188A7834
:10022000CB781B029A18120410188A79CB790C79B2
:1002300049790E4D090209191B029A181204511826
:1002400003C50020B0BD09480268406808710A7003
:10025000030ECB71030C8B71000A4871100EC8702D
:10026000100C8870100A48700020B0BD7801002082
:1002700000207047B0B5294C0549002520462A4684
:1002800001F083FE0349204601F077FE2846B0BD09
:10029000D0090020E8050020B0B504460C4D2846E2
:1002A000214601F06AFE284601F048FE20783228F7
:1002B00004D0332809D162240B4801E0612405A051
:1002C000102100F015F8094804700020B0BDC046A8
:1002D000B80D002055534232204163746976617431
:1002E00065640D0A000000003A3800089C130020E5
:1002F00010B50A4601465720C000084B1858852300
:100300009B00C058002801D0012010BD034C20469E
:1003100001F03BFE204601F0B6FE10BDB80D0020F6
:1003200080B5024800F020F980BDC0467C10002056
:10033000EFF3108072B6FEE7B0B5094908688A6825
:1003400010180BD04C68074DA91C082201F05BF96E
:10035000123504222046294601F055F9B0BDC046A9
:10036000ACF7FF1F580100202022825C521E012A98
:1003700003D800681430002202E0012291042430E6
:1003800003680B43036010467047F0B584B0024623
:10039000012015682023D35C5B1E012B28D8400266
:1003A000281803680122134303604E691F24344058
:1003B00002921346A340C4699C43C461DC43039486
:1003C000CF69012F1AD0002F33D1C768039C274073
:1003D000C760F700EC1901948C88CF683F04E419DA
:1003E00000940927BF01019C009AE2510F4617E0D3
:1003F0008104536A0B43536204B0F0BDC4681C43CC
:10040000C460F4002C1901948F880C6824043C19F2
:1004100000940927BF01019C009AE2510F460C3756
:10042000F4002C193D888E683604AD199126B6006B
:10043000A55145688C69002C01D01D4301E0039C47
:100440002540456045690C69002C01D01D4301E041
:10045000039C25404561096A012902D1C1691943FC
:10046000C1610168029A91430160002004B0F0BDAF
:100470007047F0B582B02024055D6D1E012D09D8AE
:10048000056800290AD02D69AD070AD12430012161
:100490004B0562E001218B0424305EE0ED68AD077E
:1004A00058D0019400910D0101684E191B210F01D4
:1004B000F15904240C409460F119F759002C02D131
:1004C0007C0D146001E0FC085460096802240C40B3
:1004D000D4606D21890074580F2727401761745824
:1004E000240AE4B294617158090C51613721C900A2
:1004F00072581A70026852195258120A5A700268D9
:1005000052195258120C9A70026852195158090E19
:10051000D970016849196F229200895819710168D0
:1005200049198958090A5971016849198958090CEA
:100530009971016849198958090ED97100680099A3
:10054000002903D010300021019B06E00C3000216F
:10055000019B02E0243001214B0502681A4302602E
:10056000084602B0F0BD0000F0B589B0044600684E
:100570004669416807918568C3680169049101274C
:1005800079020291F90301913904059179040391EB
:1005900081690091F10702D10020089049E0002113
:1005A0000891E90702D1E8051DD433E08760A80768
:1005B00008D468070ED4280711D42046069300F00B
:1005C00040FA03E02046069300F03CFA069BE8055B
:1005D00009D41FE0F8020890E80504D41AE03803B3
:1005E0000890E80516D5380221688860029805420F
:1005F00005D02046069300F027FA069B0AE068051E
:1006000001D5780303E0280500D4B8E0B8030899C1
:1006100009180891059805420BD0014620688160B1
:100620000398054200D19AE020461D4600F00EFADC
:100630002B461022300708D51846104005D02068F8
:10064000C26008980299084308900825700706922E
:1006500007D52B4005D02068C560204600F074F90E
:10066000069AB00707D52068C068800703D02046E7
:1006700000F06CF9069A700608D50498104005D071
:1006800020680261B802089901430891B00608D5B4
:100690000498284005D020680561204600F0A0F9A4
:1006A000069AF00607D520680069800703D0204627
:1006B00000F097F9069A0398064207D00798104071
:1006C00004D020684260204600F08CF9059806426C
:1006D00007D00798284004D020684560204600F0E5
:1006E000B6F90198064204D00798400705D4089F40
:1006F00056E0089F002F58D15DE038023146014096
:10070000090A009A1140089F0F439107394601D505
:1007100002213943029A164200D00F460099490738
:10072000394606D504213943720504D4310505D470
:1007300036E07205FAD50F46310531D57021009AA1
:100740000A402DD0103A1209052A25D87A44127988
:100750005200974402191B1D1F202F431CE0680301
:1007600006D4280307D420461D4600F06EF95FE743
:100770000898019901E00898059908430DE720467B
:10078000069300F060F938E7069804E0202002E0C4
:10079000402000E080200743206882698A4382610C
:1007A000206804214160002F05D0606A38436062F0
:1007B0002046FFF75DFE09B0F0BDF0B581B000281E
:1007C0001BD004462027C05D002802D1204600F03F
:1007D00079F826462036206801680222914301609C
:1007E00000F010FA054620684168890708D500F036
:1007F00009FA401B0B28F6D313E0012001B0F0BD2D
:100800000168012200921143016000F0FBF90546E6
:1008100020684168C9070BD100F0F4F9401B0B2890
:10082000F6D301204104626A0A436262052145E071
:10083000217E491E4A424A41D101026880239A43DF
:1008400051180160617E491E4A424A419101026885
:1008500040239A4351180160A17E491E4A424A41F1
:1008600051010268BA4351180160E17E491E4A1ED7
:1008700091410901026810239A4351180160217FB8
:10088000491E4A424A41D100026808239A4351183E
:100890000160617F491E4A424A4191000268042377
:1008A0009A4351180160271DAECF13432B433B439E
:1008B000491E1943C161002060620099317001B086
:1008C000F0BD000070B586B0002405940494039434
:1008D0000294019400681A49884201D006B070BDA4
:1008E0000126700617498A6802438A608A680240B6
:1008F00000920098B50408682843086008682840FA
:10090000009004200590039402200290032004909C
:10091000000201900098B64801A900F0A9F8284605
:1009200000F074F9F00400F071F91E252846214604
:10093000224600F0D5F9284600F0CEF906B070BD89
:10094000006400401410024070470000B0B5174C1E
:1009500000212160164D22462B46FFF78AFD28789C
:10096000022806D113486121017013A01021FFF75E
:10097000BFFC2878032806D10E486221017013A01D
:100980001021FFF7B5FCFF201230216881420BD106
:10099000974808210024224600F02CF90920C006BF
:1009A0000221224600F026F9B0BDC0469001002089
:1009B000880100209C13002055534232204163746B
:1009C0006976617465640D0A000000005553423376
:1009D000204163746976617465640D0A000000004B
:1009E000704770477047F0B581B004462020205C06
:1009F00001281BD127462037022038702068016863
:100A00000125A943016000F0FDF806462068406812
:100A1000C00711D000F0F6F8801B0B28F6D368044D
:100A2000616A014361620520387007E00125E8042E
:100A3000616A0143616201E000256562284601B0F8
:100A4000F0BD7047704770477047704770477047F8
:100A5000B0B5044600F0D6F80546601C02D09048B8
:100A60000078041900F0CEF8401BA042FAD3B0BDC4
:100A7000F0B58AB006900B68002B00D1AEE0584864
:100A8000069A824201D0052000E002200090012455
:100A900000252F46039405910CE03843514A079FE7
:100AA000D0600B681846E040AD1C3F1D641C002858
:100AB00000D193E0601E039A089082401340F0D06A
:100AC000079702934E68122E16D80120B04046496F
:100AD000084211D00320A84006998B6883430598EB
:100AE000C068A84018438860F006C00F089B984073
:100AF0004B68934303434B6003210491A940069F35
:100B0000FB688B43059A9068A8401843F860102052
:100B10000643C943122E10D11C20019107990840A9
:100B20000F2383400899CE08B600BE19316A994355
:100B3000136983400B430199336238680840516858
:100B40000B46049E3340AB4003433B60C800114654
:100B5000079FA6D55F49086801221043086008680E
:100B600001921040099030460C263E400F21B140C2
:100B7000089B834309981D4A98588843991809236C
:100B8000DB06069A9A4205D0194B9A42009F02D181
:100B9000019F00E00027B74007430F60114A10682B
:100BA00005994E68F30302D5029F384301E0029F86
:100BB000B84310605068B30301D5384300E0B84330
:100BC00050609068F30201D5384300E0B84390606C
:100BD000D068B20200D560E7B8435FE70AB0F0BD65
:100BE000000800480004014006000600080001401B
:100BF00000040048002A02D01822815070472822A1
:100C0000815070470E4800687047C04681B0314936
:100C10000A6801231A430A60096819400091009983
:100C200002490A6802430A6001B0704700000140AF
:100C30001B48007802490A68101808607047C046CF
:100C40009813002010B50648016810220A4302607C
:100C50000024204600F006F800F028F8204610BDD9
:100C600000200240B0B504467D20C0000C49097840
:100C7000FFF76EFA01460B480068FFF769FA00F0CB
:100C8000BDFC0125032C09D8002807D10025E84325
:100C900021462A4600F024F8034804602846B0BDE7
:100CA000800100201C0000208401002082B009483F
:100CB000016801221143016001681140019101990D
:100CC000110742680A43426040680840009000985B
:100CD00002B070471810024080B502F0FDFC80BDE4
:100CE00080B502F005FD80BDF0B502685423D15AED
:100CF00001242143D15217214D0100214155D65ADB
:100D000002273743D752401984600846F0BD704728
:100D1000B0B528240D060DD5072529404C430019F0
:100D20002830002A0DD0038101210173190C418163
:100D30000020B0BD4C4300192D21C9004018002AE5
:100D4000F1D1C380002101730020B0BD80B52F22F6
:100D50001201835828224A438018C26B184601F0BA
:100D6000A6FB80BD80B52F221201835828224A435A
:100D700080185F2292008258184601F000FC80BD66
:100D800010B507220A4009060AD428215143411808
:100D9000FF236A330024CC542D23DB00C91806E05E
:100DA00028215143411829230124CC5428310A70A9
:100DB0005522D200835C012B01D1022010BD841882
:100DC00001222270006802F005F80020207010BD9A
:100DD000B0B50F220A4043689A4201D90120B0BD44
:100DE00007220A4009060AD4282151434118FF234B
:100DF0006A330024CC542D23DB00C91806E02821D7
:100E00005143411829230124CC54283100248C70EB
:100E10000A705522D200835C012B01D10220B0BDA3
:100E2000851801222A70006802F058F82C702046BC
:100E3000B0BD0000F0B581B000685023C65A0B78F1
:100E4000DC005504C24D2A4F10D4BE19361834198F
:100E5000A4882C408D692E1B00D200268E61A542ED
:100E600014D952061BD5002C22D13EE0F6193618B3
:100E7000345B2C408D692E1B00D200268E61A5426A
:100E80001CD9520623D4002C2AD12EE09D00465BAB
:100E9000184F3740184E7E4046535206E3D49A000E
:100EA000835AAC4D1D40154BEB188352002C1CD0BF
:100EB0004A894969234602F0DEFB16E09D00465B45
:100EC0000C4F37400C4E7E4046535206DBD59A00FD
:100ED000835AA04D1D40094BEB188352002C04D0BF
:100EE0000A894969234602F0C6FB204601B0F0BDDD
:100EF000020400000F3F000080A00000C08000003E
:100F0000F0B587B016460C46069000685021435A4B
:100F10000122D1030591019295022178CF0002466A
:100F20005032039272068A4A029704952DD4EB1828
:100F30001B18DB19DB881340A269D71A00D20027DF
:100F4000A7619A42834D4DD97204069F05D489004A
:100F5000425A2A40804E164346522421615C0129A0
:100F600000D0E8E06169C9186161E269D218E26104
:100F70002669226AB24255D226462436002A7AD001
:100F8000002333702362164678E0EB181B18DB1938
:100F90005B881340A269D71A00D20027A7619A4242
:100FA0006C4D2FD97204069F05D58900425A2A40FC
:100FB000694E164346522421615C012900D0BAE0F3
:100FC0006169C91800916161E169C918E16122692B
:100FD000266A964229D22246243200211170002E20
:100FE00025D126E0069F3846FFF7B0FE700400D5F5
:100FF000A1E0386821788900425A2A40564B1343B1
:10100000435298E0069F3846FFF7A0FE700400D4D4
:1010100091E0386821788900425A2A404E4B1343A8
:10102000435288E0921B226228E0B11A16462162E0
:1010300033466178012914D00029049D62D1022130
:10104000029A0A4341198E1803990A88002B38D056
:101050003E2B4DD8019D1D405908491989029153D5
:1010600050E00221029A0A43049941188918039A10
:1010700012888B5246E0002232701E466278012AA6
:1010800015D0002A53D10622029B1343049A8218DA
:10109000D318039A12880492002E02931BD03E2E7E
:1010A00037D8019B33407708FF18BF023BE0062288
:1010B000029B1343049A8218D218039B1B88D652B2
:1010C00035E0915B254F0F409753915B059F394366
:1010D000069F915316E0049AD25A03921F4F039A27
:1010E0001740049AD752D75A059B1F43029B1CE016
:1010F000D9065D09002900D16D1EA902059F39435B
:101100009153069F22899BB2009902F0D2FA114DA9
:1011100011E0F70603977709039A002A00D17F1E92
:10112000BF02059B1F43029B049AD752069F628908
:10113000B3B202F0BEFA386821788900425A3035DD
:101140001540059AB0326A40425207B0F0BDC04621
:10115000FF0300000F0F000080C00000FF830000AD
:1011600007220A4028215143401861218900405834
:10117000704770B507240C4009060AD42821614342
:101180004118FF256A3500264E552D25ED004919D9
:1011900006E0282161434118292501264E552831B2
:1011A0000A61CB700C704A78002A00D0CC81022BE7
:1011B00001D100220A715522D200835C012B01D19A
:1011C000022070BD841801222270006801F0F2FC38
:1011D0000020207070BDB0B507240C402821614369
:1011E00041182D25ED004C55491900240D461435A4
:1011F0001CC54C70006801F0C7FE2046B0BD10B59C
:1012000007220A4043689A4201D9012010BD0B060B
:101210000AD428234B43C118FF236A330024CC543B
:101220002D23DB00C91806E028215143411829234A
:101230000124CC5428310A7001228A705523DB0026
:10124000C45C012C01D1022010BDC41822700068BA
:1012500001F07CFE0020207010BDF0B581B00724A5
:101260000C4028252946614341184C2601278F55FB
:101270004C558B64283100240D4614351CC54F7025
:10128000006801F081FE204601B0F0BD70B5044653
:10129000006802F0EDF9000402D5204600F084FB5E
:1012A000206802F0E5F940050CD520684421425A37
:1012B0004C4B13404352204600F02EF900212046AB
:1012C00000F055F91725206802F0D2F9400405D541
:1012D00020684421425A444B134043526D01206818
:1012E00002F0C6F9800405D520684421425A3F4BDC
:1012F000134043526519206802F0BAF9C0041AD5A8
:1013000020684021425A04239A434252425A0823F9
:101310009A4342522878012804D10021297020469E
:10132000FFF7F5FC204600F009F920684421425AF5
:101330002F4B13404352206802F09AF9000512D552
:1013400020684021425A0823134343520246403248
:101350009388284E1E409680425A042313434352DA
:10136000204600F039F9206802F082F900061FD506
:1013700020684421425A80239A4342522978002906
:1013800003D0204600F028F912E040300188042202
:101390000A430280018808220A4302800121297041
:1013A000808A80083C2202406A602046FFF7AFFC3A
:1013B000206802F05DF9800508D520684421425A72
:1013C0000D4B13404352204600F0CAF8206802F04B
:1013D0004FF9C00505D520684421425A074B1340F8
:1013E000435270BDFFFB0000FFBF0000FFDF0000A5
:1013F000FFEF0000FFF70000FFFD0000FFFE000010
:10140000F0B589B0002861D004465520C0002518E9
:101410006878002804D100202870204600F05AF88F
:10142000032008956870206801F04EFD616800296E
:1014300014D0616800200346024628256B43E31858
:101440005A552833D5B2DD8101255D701861586188
:101450009861D870521CD3B29942EED820462430FD
:101460000790002912D000200346024628255D433C
:1014700063192D25ED005A555B1918615861986163
:10148000D8705870521CD3B29942EFD8A06805901A
:10149000E068069027461037E0CFE269236A2068AB
:1014A00000950196029703920493059A069B01F01A
:1014B00001FD002507980570012008994870E06932
:1014C000012804D12046FFF70FFC00E00125284643
:1014D00009B0F0BD10B582B000680D49884201D056
:1014E00002B010BD0120C0050A490A6802430A6023
:1014F00009680140019101981F24002120460A46F5
:10150000FFF7EEFB2046FFF7E7FB02B010BDC04639
:10151000005C00401C100240B0B504468068022800
:1015200001D0FEF705FF2F2005016059012101F0D0
:101530001CF9605901F0D7F8B0BD000010B50446A1
:101540008069002806D02C4801680622914301607A
:1015500000F0DEFB2F200001205801F0EEF810BD56
:1015600080B52F210901405801F0F1F880BD10B578
:101570005522D200835C012B01D1022010BD8418BA
:1015800002462432117001222270006802F088F8AD
:101590000020207010BD80B52F21090142582B2159
:1015A00009014118104601F0EDF880BDB0B50446C0
:1015B0005520C000215C012901D10220B0BD2518B1
:1015C00001202870206802F03FF8206801F06AFCD2
:1015D00000202870B0BD000010B504462F20000187
:1015E000205801F013F9A069002804D002480168CE
:1015F00006220A43026010BD10ED00E080B500F045
:101600006FFB80BDFEE710B504E037330B70521E50
:10161000891C0001002A07D000234B70440F030FE0
:10162000052CF2D23033F1E710BD000081B005493E
:101630000A6802430A60096801400091009801B0FD
:101640007047C04614100240054801680120084058
:101650007047C0460248016801220A430260704791
:1016600000200240F0B581B005460868002833D05C
:101670000C4600270EE062692846314600F03BF830
:1016800062682846314600F041F87F1C2068014618
:10169000F94021D00126BE400640F6D06068401EC9
:1016A000012809D8A2682846314600F047F8E268C8
:1016B0002168284600F033F822692846314600F0B8
:1016C00034F860680228DBD1FF2ED4D8626928463E
:1016D000314600F006F8D3E7002001B0F0BD81628A
:1016E0007047494349434A430F234B43016A994397
:1016F000114301627047090A494349434A430F2392
:101700004B43416A994311434162704749434A43FD
:1017100003234B43016899431143016070474A43D7
:1017200043688B4313434360704749434A43032351
:101730004B43C16899431143C160704749434A43D1
:1017400003234B4381689943114381607047000034
:10175000254801680C2008407047C046012000045D
:1017600005490A6802430A607047C046024800689B
:101770008003C00F7047C046341002407B20C00376
:1017800019490A6882430320C00310180860886A58
:10179000012202430E2082438A6270470120000624
:1017A00005490A6802430A607047C046024800685B
:1017B0008001C00F7047C046001002400A4801680F
:1017C000F0229143016070470720000206490A6831
:1017D00082430A607047C0460348016802220A43F8
:1017E00001218A43026070470410024002480168E8
:1017F0008022914301607047301002400149086027
:101800007047C0461C00002070B58AB016480024FE
:101810000321164A848301252B058E040260416052
:101820008460C460066143618461FEF7C6FF0028DE
:1018300018D107950694059400940194029403949A
:1018400004940994089508486946FEF79EFD00280F
:1018500008D107480475082130C0046044608160E5
:101860000AB070BDFEF764FD7C10002000640040EB
:10187000AC010020F0B58BB000260A9609960896B8
:1018800007960696059601246004FFF7CFFEA00494
:10189000FFF7CCFE0920C506022101912846FFF77B
:1018A0001EFF0827284639460497FFF718FF102126
:1018B00002912846FFF713FF202103912846FFF7E6
:1018C0000EFF22483946FFF70AFF09960896079649
:1018D00006940198059005AF28463946FFF7C2FEE9
:1018E00009960896032001900790069404980590A5
:1018F00028463946FFF7B6FE0996089607960694DD
:101900000298059028463946FFF7ACFE09960896DE
:10191000079606940398059028463946FFF7A2FEDD
:10192000099606960594094D28463946FFF79AFE12
:101930000996089601980790069404980590284601
:101940003946FFF78FFE0BB0F0BDC04600040048DB
:1019500080B510481049002200F080FD002801D019
:10196000FEF7E6FC0B480D4900F076FF002801D099
:10197000FEF7DEFC07480A4900F0F6FA002801D01D
:10198000FEF7D6FC034800F0F4FF002801D0FEF774
:10199000CFFC80BDB80D00200000002020000020FA
:1019A00044010020FEE70000F0B58DB00446006859
:1019B00044210B91415E002901D40DB0F0BD2D21D1
:1019C000C90007916118049100210291C9430A914D
:1019D000214624310591014644312B220692120101
:1019E000A218039201220192D2030C92089422E0E1
:1019F0005021415AB64A891822688918049D2A78CC
:101A0000D2008B5AAF490B40EB61EA88039901F091
:101A100032FE20680188AC4A114080220A430280CD
:101A20002046FFF7B8FD20680B99425E014644311D
:101A30000A9B9A42C1DC0A880F27174023D0B900BD
:101A4000465A0C9A164200D1DAE041180A889E4B99
:101A50001A40802313430B80282179436418079987
:101A600063185D218900615C0029099374D0FF210E
:101A70006C31615C02297CD1089819463246FFF727
:101A8000D9F90546A2E00188D2062BD48E4A11402E
:101A90000C9A114301805021405A8D490818216841
:101AA0004018059E3179C9004018001F00888549FB
:101AB00008406064E16B0818E06300252046294671
:101AC000FFF744F930780028ADD0206C0028AAD167
:101AD000059B187880210143C8B221684C228852A6
:101AE0001D70A0E70A0583D40C9A11429BD001888F
:101AF000754A114080220A43028025465024015B2A
:101B0000734A89182A688918049E3278D2008B5A41
:101B10006C490B40F3610DD0716900290AD0F2883D
:101B200001F0A9FDF069716908187061002128466B
:101B3000FFF718F9286866494118025B3369002BE2
:101B400000D1A5E03E2B00D9ABE05C08019D2B4005
:101B5000E3189B02089CADE05021415A5C4A821870
:101B600051181A78D2008D5A56490D402ED0B721FF
:101B700024E01A789100435A534D2B400C9DC035F8
:101B80001D434552435A5021415AD2004F4DF13521
:101B90002B420BD04E4B1B189A185118091F0D8859
:101BA00048490D4012D01721090108E0484BC318DD
:101BB0009A18555A43490D4008D0B9214900625A34
:101BC0005F21890061582B4601F055FD612080009E
:101BD0002158491921505F2080002158491921506E
:101BE0000320C0012058002804D02F20C000205816
:101BF000A8423FD909980178089C2046FFF7B2F81F
:101C0000300600D40FE7780041002068425A2E4B7E
:101C10001A400C9B1A4342522821794363181946F3
:101C20002831F20508D5069A9A5C022A04D120468A
:101C30003246FFF765F9F6E65022825A244DAA187B
:101C4000246814190A78D5006419241F24881D4DAE
:101C50002C401D6C2E1B00D2029E1E64A54211D981
:101C6000DA6B1219DA635A6C12195A6401F08CF9A2
:101C7000089CD8E6089C2068099901F085F930068F
:101C8000C1D4D0E6089C20461146FFF75FF8CAE6AB
:101C9000535A104C23405352535A0C9C2343089CD4
:101CA00008E0DC065B09002C089C00D15B1E9B024F
:101CB0000C9D2B4353520188044A1140064A51405F
:101CC0000180B0E6FF0300000F0F00000F3F00008F
:101CD00006040000FF83000080B0000070477047DA
:101CE000B0B5401E010E01D00120B0BD054D6860A9
:101CF0000024E043032101F0FBFCAC6007202860D6
:101D00002046B0BD10E000E080B5FEF791FF80BD39
:101D100080B500F001F880BD80B5FFF79BFCFFF7B0
:101D200093FC0128FBD1FFF719FDFFF71FFD0128E8
:101D3000FBD1FFF723FDFFF731FDFFF737FD01284A
:101D4000FBD1FFF73BFDFFF73FFDFFF745FDFFF739
:101D5000FFFC0828FBD10648FFF750FD0020FEF7E6
:101D600081FF002802D1FFF741FD80BDFEF7E0FAB8
:101D7000006CDC027047F0B581B00C460546572078
:101D8000C1006F58002F14D0142060432E18F06942
:101D9000002809D069188968282262438918896B4C
:101DA000FEF7D6F9002906D08520800000263E5097
:101DB0000BE0022609E01C36304600260660284665
:101DC00021463246334600F02AFD304601B0F0BDD0
:101DD00070B504465720C600A559204600F012FCF5
:101DE000832189006850A05900280AD0A2196918D7
:101DF00081208000281800685268D268904700202F
:101E000070BD022070BDB0B50446812100F046FBD4
:101E10000025E5620121204600F040FB5B208000A8
:101E200025508221204600F039FB25645720C00050
:101E30002158002907D0241860684068804720682E
:101E400000F0B2FE25600020B0BD10B55721C900DA
:101E500042185368002B0BD04158012040020C1847
:101E60002078FF2804D062789B689847FF20207074
:101E7000002010BD0A21018000487047E0000020CA
:101E80004321018000487047580000204321018011
:101E9000004870479C0000204321018000487047A3
:101EA000EC000020F0B583B00446007C01267502EA
:101EB0000028019500D0402581210291022720466B
:101EC0003A462B4600F0FAFBE662204631463A4697
:101ED0002B4600F0F3FB5B2080002650822103227A
:101EE0000823204600F0EAFB266402988000029056
:101EF000183000F05BFE5721CD006051872189002A
:101F0000FEF71BF96759002F15D06019406800686B
:101F1000804702997818002606618660C66046618F
:101F2000207C0028019B084600D040233A5801211C
:101F3000204600F0CFFB304603B0F0BD10B557216E
:101F4000C9004258002A05D0037C0121002B03D090
:101F5000402302E0022010BD4B028124A40012594C
:101F600000F0B8FB002010BD002904D0AF22920081
:101F7000815000207047022070475722D2008058BD
:101F8000812292008150002070475723DB00C05807
:101F90004123DB00C150C018826000207047F0B5BB
:101FA00083B00E4605465720C0002F5802A80024D3
:101FB000047001A80480A7208000291830786022CE
:101FC000024011D0202A1FD1F288002A22D0000618
:101FD00028D40120400238184270717801702846D8
:101FE000394600F0A4F84BE070780B2825D00A2879
:101FF0002CD0002833D10878032836D101A9022239
:10200000284600F0B3F83BE02846314600F085F85A
:10201000022435E07078096A8B6800243146224634
:1020200098472DE07078096A8B6839469847F2889E
:102030002846394600F09AF822E0087803281FD095
:102040002846314600F069F8022419E00878032890
:1020500011D102A90122284600F088F810E0284694
:10206000314600F05AF802240AE02846314600F0D2
:1020700054F8022404E02846314600F04EF80224C9
:10208000204603B0F0BD10B55721C90041580029C2
:1020900008D04122D20013460C33CC58002C03D078
:1020A000012010BD022010BD0124CC508B189B686C
:1020B00003638A589BB2812100F0B1FB002010BD60
:1020C00080B5AD229200825852689047002080BDB2
:1020D00080B5A7229200835C5B1E022B08D849883A
:1020E000012907D1811800228A6000F04EF880BDD6
:1020F00000F013F880BD10B513460A4600242146AF
:1021000000F0E8FA204610BD10B513460A46002438
:10211000214600F084FB204610BD10B50446802106
:1021200000F062FB0021204600F05EFB10BDB0B560
:1021300013460A46572189004350A524A4000325CD
:10214000055141184B600024214600F0C3FA204697
:10215000B0BD10B5A52189000522425000242146BA
:102160002246234600F0B6FA204610BD10B51346AD
:102170000A46A521890002244450C3610362002459
:10218000214600F04CFB204610BD10B5A52189006A
:1021900004224250002421462246234600F03FFB01
:1021A000204610BD10B50A4603A0284C214600F079
:1021B00028F9204610BDC04643444320436F6E6655
:1021C0006967000012200880004870473001002035
:1021D00010B50A4603A01D4C214600F012F9204616
:1021E00010BDC04643444320496E74657266616306
:1021F000650000000420088000487047540100205A
:1022000010B50A4603A0114C214600F0FAF820460A
:1022100010BDC04653747279782E496E6300000079
:1022200010B50A4603A0094C214600F0EAF8204602
:1022300010BDC0465553422050726F746F636F6C6F
:10224000204368616E67657200000000C8010020CD
:1022500080B51A200880FEF76FF8014880BDC0469F
:102260005801002080B5C988012911D1A721890012
:10227000415C4A1E022A04D20021816001460831D5
:1022800002E0032904D1011D0122FFF76FFF80BD89
:10229000FFF743FF80BD0000F0B581B00D46044656
:1022A0006846002606804888010A4A1E062A5CD82D
:1022B0002B2109016118C0467A44127952009744D3
:1022C00003150754541C2400207C09680A6845E063
:1022D000C0B2052849D8C0467844007940008744F8
:1022E000022C2F3235380868426834E04868217C77
:1022F0000127002910D0C16A0FE0207C002834D1CA
:102300004868416B684688472AE0207C00280CD04A
:102310002046FFF702FF2CE0816A684688470646A0
:1023200002207070002F3AD026E04868016B6846A2
:10233000884706460720707013E0086882680AE044
:102340000868C26807E00868026904E00868426932
:1023500001E008688269002A07D0207C694690471E
:1023600006460127002F07D119E02046FFF7D5FECA
:1023700000263746002F12D068460288002A0BD06C
:10238000E888002808D0824200D3024668460280CE
:1023900020463146FFF7EAFEE888002801D001B068
:1023A000F0BD2046FFF7F1FE01B0F0BD0178002935
:1023B00009D0411C00204A1C401C09780029114604
:1023C000F9D1C0B270470020C0B2704780B5A722D3
:1023D0009200835C5B1E022B08D8C988022905D1B4
:1023E00081188968002904D0032103E0FFF795FED6
:1023F00080BD0121C16001460C310222FFF7B6FE0B
:1024000080BD70B500281BD016460C460546FFF768
:10241000CDFF4000801C30800321617020702A783D
:10242000002A0DD0691C0220C3B2E25401221A43D3
:102430000023A3544B1C801C0A78002A1946F3D1B0
:1024400070BD0000032804D8C0000349C140C8B2D1
:10245000704702207047C0460002010210B50028F4
:1024600011D0A7239B00C3189C69002C01D0002425
:102470009C61002900D0596102700121197000F09F
:10248000C9F8002010BD022010BD80B50B229201BA
:102490008058FEF79DFCFFF7D5FF80BD80B50B226D
:1024A00092018058FEF76CFCFFF7CCFF80BDF0B5C1
:1024B00081B00446A5208000271800290CD0386A76
:1024C00042690220002A05D03B7A032B02D1204624
:1024D0009047002001B0F0BD3868002816D00428CD
:1024E00014D0022816D1206A666AB0421CD9801B1B
:1024F000206283B2204611461A46FFF705FE0021EE
:1025000020460A460B4600F0E5F803E0802120460D
:1025100000F06AF9387B012803D10020387301B03C
:10252000F0BD002001B0F0BDE56928463146FDF759
:102530000FFEB54212D3002910D1786885420DD222
:102540000025204629462A46FFF7DEFD7D6020460D
:1025500029462A462B4600F0BDF8DBE7386AC168F9
:10256000002904D0387A032801D1204688478021E9
:10257000204600F039F92046FFF7EBFDCAE770B5B9
:102580000546A5208000281800290CD0026A92690F
:102590000224002A05D0007A032802D12846904759
:1025A0000024204670BD01680024052915D00329A8
:1025B000F7D10B2149016B181E6859688E4213D957
:1025C000701A1860884200D3084683B22846114624
:1025D0001A46FFF790FD204670BD0460284621464C
:1025E00000F002F9204670BD016A0969002904D093
:1025F000007A032801D1284688472846FFF7C5FD01
:10260000204670BD80B50B2292018058FEF7A8FDD0
:1026100080BD000070B50B218A011D4981502F2318
:102620001B01C85000238B61CB610B6202230B613D
:102630000824184D0D604C608B6086180846FEF724
:10264000DFFE002801D0FDF773FE30680024182358
:1026500021462246FEF75CFB306880215823224643
:10266000FEF756FB30688121C0232246FEF750FB5F
:10267000306801210D022B4610332246FEF748FB3D
:102680003068822122462B46FEF742FB204670BD71
:10269000A4100020005C00407F220A4028235343FE
:1026A0000B2292018058C018090602D52A30007802
:1026B0007047B521490040180078704710B514469E
:1026C0000B22920180581A462346FEF752FDFFF76F
:1026D000B9FE10BD10B50B24A4010059FEF77BFD17
:1026E000FFF7B0FE10BDF0B581B0044600254026CE
:1026F00029462A463346FFF7E1FF2B20C000012779
:1027000027502018C660802120462A463346FFF70E
:10271000D5FFA52080002550201807726662A761AA
:1027200005616560416A002904D0006A42680021A1
:1027300020469047002001B0F0BDA7218900425CEF
:10274000042A02D14018417801700020704780B5FA
:10275000A7218900425C032A05D141188969C9690A
:10276000002900D08847002080BD017400207047F8
:1027700080B50B2292018058FEF7F9FEFFF762FE4A
:1027800080BD0000F0B581B00446A5208600A719E1
:102790003D461435284600F04BF80120A051114861
:1027A000205A7860397D1F200840022808D001286F
:1027B0000BD000280ED12046294600F0DFF80EE0AD
:1027C0002046294600F017F909E02046294600F086
:1027D000BCF904E080200140204600F005F800200C
:1027E00001B0F0BDAE02000080B50B22920180580E
:1027F000FEF705FDFFF726FE80BD80B50B218901A0
:102800004058FEF7D3FEFFF71DFE80BDA7218900CB
:10281000425C04234354401842700020704710B5B6
:102820000B24A4010059FEF718FDFFF70BFE10BDA5
:102830000A7802704A7842708A78CB781B029A181C
:1028400042800A794B791B029A1882808A79C97969
:1028500009028918C1807047002904D0AD22920076
:102860008150002070470220704770B50446888868
:1028700000280BD1C888002808D14D887F2D05D8A5
:10288000A720800026183078032803D12046FFF7C0
:1028900044FC70BD7F200540B57020462946FFF7F7
:1028A00067FF2046FFF771FC002D02D00220307038
:1028B00070BD0120307070BD80B5AD22920082588D
:1028C000002A05D012689047411E8841400080BD13
:1028D000022080BDB0B5044648881F4D2870C1B2A3
:1028E000022903D32046FFF718FCB0BDA7208000C3
:1028F000225C2018032A0CD0022A1BD1002927D0E1
:102900000322027061602046FFF7D6FF02281FD124
:10291000E8E7002916D06068884219D0C1B2204685
:10292000FFF7CEFB297861602046FFF7C5FF02283C
:102930000ED1D7E72046FFF7F0FB29782046FFF7B6
:10294000BFFBB0BD6160022202702046FFF7B8FBFA
:102950002046FFF71AFCB0BDC401002080B54988AD
:10296000012905D1A921890001224250FFF70DFC60
:1029700080BD80B5FFF741FF002080BD80B50B789A
:1029800060221A400AD0402A01D0202A17D1AD2255
:102990009200825892689047002080BD4A78092AA8
:1029A0000DD8C0467A44127952009744040C08109E
:1029B00008142008181CFFF709FD002080BDFFF750
:1029C000ACFB002080BDFFF783FB002080BDFFF73C
:1029D000C5FF002080BDFFF748FF002080BDFFF746
:1029E00041FC002080BDFFF775FF002080BDFFF790
:1029F00053FC002080BDB0B50A460446087860212B
:102A00000140A7208000201800290AD0402901D0C9
:102A1000202918D1806983682046114698470020F4
:102A2000B0BD11795378002B12D0012B22D0032B8B
:102A30004ED1007803282FD0022849D180200843A6
:102A4000802845D01FE02046FFF767FB0020B0BD7F
:102A5000007803282ED002283AD18020084380280D
:102A600036D17F20084014224243A31808064DD5D2
:102A700014334EE0007803282FD0022828D180207C
:102A80000843802824D02046FFF7AEFE8021204650
:102A9000FFF7AAFE0020B0BD5088002825D1802075
:102AA0000843802821D0D08800281ED12046FFF777
:102AB0009BFE1AE00F230B4080200A4614255D433D
:102AC0006319024016D12B25ED005B59002B14D160
:102AD0002046FFF722FB0020B0BD50880028B5D16A
:102AE000480602D02046FFF7D0FC2046FFF74DFBFA
:102AF0000020B0BD9B69002BEAD07F230B4014253A
:102B00005D436519002A0AD014350BE0552080007A
:102B10001B180020186002222046194611E0552299
:102B20009200AD180843802801D1002005E020461E
:102B3000FFF7B2FD0028F8D00120286002222046CD
:102B40002946FFF713FB0020B0BDB0B50D46044683
:102B500009786020084003D0402801D020280FD1F8
:102B6000A720800020180178491E022903D8A988CF
:102B70000906490E09D02046FFF7CFFA0020B0BD64
:102B80002046FFF7CAFA0020B0BD8069826820465F
:102B9000294690470028F6D1E8880028F3D120463E
:102BA000FFF7F3FA0020B0BD7047000000487047FF
:102BB000C8030020F0B586B003460F78B8001E1891
:102BC000185A7E4D0540C8780328049008D8002282
:102BD000784400794000874401050B08012005E096
:102BE000012205E00120800201E0032040020543AC
:102BF000734C254335803088D04D284038432043DE
:102C00003080087B002844D00392308805966D4EB2
:102C100006406D483018059A108050201C5A0294C6
:102C20000124A5025D19FF00EA190192E4430E890F
:102C300026400093029B019AD652059E009A105A94
:102C40003A1DAA184B8923401352CD4A1346F1333B
:102C500030881840497800293ED00028584BB74C9E
:102C600004D030882040B749014331803088400685
:102C700005D5308820401946403101433180303439
:102C8000308820400499012943D01946203148401A
:102C900040E05020185A0390FF00487800283FD0A9
:102CA0001446D819039A8018C988012291439202C8
:102CB000815230884006424A05D530882840114666
:102CC0004031014331803035318829400498012852
:102CD000204647D111436DE00028394B974C04D072
:102CE000308820409749014331803088400605D51F
:102CF00030882040194640310143318030881040EF
:102D00009149414031803034318821401943039842
:102D100050E018433080318811401943039849E04E
:102D20000596042038430124A6029E1902965033CA
:102D300030180490C8880194A043039C049E30532B
:102D400006203843029C2718086919881346002872
:102D50000BD03E2813D8019A024040088018820206
:102D6000059E16E02032514024E0C85B174A02401D
:102D7000CA53C85B124A803A0243059E09E0C20664
:102D80004009002A059E00D1401E80020C4A803A6C
:102D90000243CA5331887A480246F132114204D0C4
:102DA00031882940674A0A43328032880240084904
:102DB00051401846318006B0F0BDC0468F89FFFFF4
:102DC000808000000F0E000080810000FF83000063
:102DD00080B0FFFFB0B50A789200845A80184B7813
:102DE0000A7B2F49002A21D0654A1546F1352C402F
:102DF000002B27D0514B534D002C03D004881C408E
:102E00002C4304800488640603D504881C400C43CA
:102E1000048004881C402C430480303304881C4008
:102E20000B46403B23430380134631E0002B24D064
:102E3000424A1346303364062AD5048814400C43B2
:102E4000048025E03D4B002C04D004881C403D4DFF
:102E5000254305800488640603D504881C400C4380
:102E6000048004881C400C430480048814400A46F3
:102E7000403A2243028030330AE0414B1A46F13295
:102E8000144205D002882D4C14402E4AA21802800C
:102E900002881A404039114301800020B0BDC0466D
:102EA000C08000005821425A0123DB0313434352E0
:102EB0000020704740220121815200218152403080
:102EC00081800182084670474021425A024B1340DC
:102ED000435200207047C0467F400000B0B50A7BD7
:102EE000002A01D00020B0BD0A789300C25AC01851
:102EF0004B78002B10D05206104B114A05D5048890
:102F00001C401546203525430580C9780129E9D0A4
:102F10003033018819400DE019490B46F1331A424C
:102F200005D00288054B1340064A9A180280028891
:102F30000A400549514001800020B0BD0F0F00003C
:102F4000A080000080C0000080B0000010B54B7869
:102F5000002B04D0094A002B04D1094B03E0064A98
:102F6000002BFAD0074B09788900445A1C40544082
:102F70004452002010BDC0468090FFFF9080FFFFAC
:102F80000F3F00003F0F0000F0B585B00D4604462E
:102F90004878012842D12A69A9699142164600D889
:102FA0000E46297B00295DD0E978022900D088E00F
:102FB000049629788B00E618E35AF74F1F402B6AD6
:102FC000934200D8CDE00391F44A17433780049F21
:102FD000DA1B2A6232880121CE03520600D500E1B5
:102FE000019189020291012800D143E10028039B4D
:102FF00000D064E25020205A02996218D900891C3E
:103000005118002F00D146E23E2F00D94FE23A4638
:10301000019B1A407B089A1892024FE2297B0029F3
:1030200031D0E97801296CD0022900D096E0012145
:103030008A02002800D051E15023E35AA618F31861
:103040002F692E78F600B61C0496002F00D100E1FF
:103050003E2F00D932E17E0803960F40039EF719F8
:10306000BF0239E1EA886969B3B2204600F021FB6A
:103070005020205A20182978C900891C40180121A5
:10308000890246527FE02F69A869C11B00D2002146
:10309000A961B84200D807465020205A20180123C1
:1030A000990240182978C9008A1DCE49002F00D105
:1030B00082E03E2F00D989E03B407E08F3189B0256
:1030C0008CE02A789100615A4B060121CF03002B36
:1030D0005BD4012800D1AAE0002800D0ABE1502049
:1030E000205AD200921CA2188B02D218002E00D1B6
:1030F0008DE13E2E00D996E13140730859188902BE
:1031000098E12A69A9698B1A00D20023AB61914228
:1031100000D80A4601239F0201287FD0002800D052
:103120000EE104935021615AE61971182E78F600C9
:10313000B61C002A0391029600D1A5E03E2A00D9D0
:10314000F1E00192049B019E1E4001965108019BF3
:10315000C9188902029E039BF152F0E0012005B0DC
:10316000F0BDA148074337805020205AC900891C70
:103170006118081801218902435269692A899BB2A2
:10318000204600F096FA994E43E2012858D00028D4
:1031900000D05BE15020205AD200921DA2188B0271
:1031A000D218002E00D138E13E2E00D946E1314040
:1031B00073085918890248E1175A8D4E3E4016523D
:1031C000165ADB0333438B4E135224E2FE067F096B
:1031D000002E00D17F1EBE02DB0333431352854E07
:1031E00019E201918902029101285DD00028039B18
:1031F00000D0AFE15020205A02996218D900891DF1
:103200005118002F00D14CE13E2F00D99AE13A46E7
:10321000019B1A407B089A1892029AE15021615A48
:10322000E61971182E78F600B61C8A5388E05020F3
:10323000205AD200921CA218101889024652FAE0B5
:103240005020205AD200921DA2181018890246520E
:10325000FCE00291049EF15A0391F34F03990F4051
:103260000299F7520192F25A0392F24F039A1743CE
:10327000019A31E05020205A029962180399C9003E
:10328000891C51180F521AE1735A01930E46E649F0
:10329000019B1940029B9953995B01910499C903C1
:1032A000019E3143039E49E05020205A0299621842
:1032B0000399C900891D51180F524BE1FE06039670
:1032C0007F09039E002E009300D17F1EBB02039353
:1032D000D84F039B1F43009B049EF752012812D036
:1032E000002866D15020205AA21810182B692A787D
:1032F000D200921D002B10D03E2B51D819405B08F4
:103300005918890254E05020205AA1180818296938
:103310002A78D200921D81524BE0135AC24E1E40B1
:103320001652135A42E0D1065309002900D15B1E00
:1033300004999B02C9031943039E029B9953049B62
:10334000BA49BB4E012814D0002800D063E15020B8
:10335000205AE61930182E78F600B71D002A11D031
:103360003E2A49D813405208D21892023A52B04E1F
:1033700051E15020205AE31918182B78DB009B1DCF
:10338000C25248E13A5AA84E16403E523A5ADB031E
:1033900013433B52A64E3EE10F0E00008081000019
:1033A000DE065B09002E00D15B1E9B02C903194398
:1033B0001152E8699D499E4E002800D12BE12878E2
:1033C0008000225A9C4B1A409A4202D0002A00D018
:1033D00021E12018994A303A03881340984A9A18F4
:1033E000028018E10F3F0000808000000080FFFF96
:1033F000FF83000080B00000D6065209002E00D1E5
:10340000521E8B4E9202DB0313433B5203E1815A5F
:10341000854B0B408352815A0BE0815A824B0B4003
:103420008352815A10E0F3067109002B00D1491E26
:103430008902394381522846083009E0F3067109B0
:10344000002B00D1491E89023943815228460A3097
:1034500069690288B3B2204600F02BF93E46B036C7
:103460006878764901280CD0002800D0D3E028786D
:103470008000225A0B46303B1340C0371F4327526F
:10348000C9E028788000225A0B46303B13406D4A31
:103490001A432252BFE0425A634B13404352425AEE
:1034A0000BE0425A604B13404352425A50E0FB0635
:1034B0007A09002B00D1521E9202324342526969AE
:1034C0002A89BBB2204600F0F4F86869C119696125
:1034D000286A2A69904201D8002300E0C31B2B62AE
:1034E000904200D807466878012815D000281CD1E2
:1034F0005020205A029AA21810182A78D200921D41
:10350000002F14D03E2F67D80490019838407B08D4
:103510001B189B02049812E05020205A029AA2180D
:1035200010182A78D200921D87526A896DE0135ACA
:1035300004973D4F1F401752049F135A33431352B1
:103540006A8962E0FB067A09002B00D1521E9202C2
:103550003243425269696A89BBB2204600F0A9F839
:103560006869C1196961286A2A69904201D80023F3
:1035700000E0C31B2B62904200D807466878012800
:1035800016D0002840D15020205A029AA2181018B4
:103590002A78D200921C002F14D03E2F29D80490F4
:1035A000019838407B081B189B02049813522BE0AB
:1035B0005020205A029AA21810182A78D200921C81
:1035C000875221E0135A0497174F1F401752049F48
:1035D000135A3343135217E03B46FF0604935B092B
:1035E000002F00D15B1E9B0233431352049F6A8954
:1035F0000BE03B46FF0604935B09002F00D15B1EE6
:103600009B0233431352049F2A89BBB2204600F029
:1036100050F8B036094928788000225A0A40724092
:103620002252002005B0F0BDFF8300000F3F0000D4
:1036300080B000000080FFFF404000003F0F00000E
:10364000C080000080C0000002464032002191800E
:103650004022024B835208467047C04680BF00009C
:1036600080B50248FDF712FE80BDC046A4100020C0
:103670004421405A704710B58018012292028018E8
:103680005A0808D004880C70240A4C70891C521EF9
:10369000801C002AF6D1DA0701D00088087010BD1E
:1036A000002901D0002070474C2180224252002086
:1036B000704710B55B1C5B080DD080180122920288
:1036C00080180A784C782402A2180280891C5B1E9C
:1036D000801C002BF5D110BD002805D41F21084007
:1036E00001218140014801607047C04600E100E0CF
:1036F000002805D40322034693430C4A9A1806E097
:103700000F220240083A03239A43074BD21880073E
:10371000C00E8901C9B28140FF23834010689843DD
:10372000084310607047C0461CED00E000E400E074
:1037300082B0FDF787FAFEF7EFFAFEF79BF8FEF787
:1037400063F8FEF705F9324C2046FDF74CF90225E7
:1037500020462946FCF708FE0920C4060826012752
:10376000204631463A46FDF745FA2A4831463A4660
:10377000FDF740FA204629463A46FDF73BFA10216C
:1037800020463A46FDF736FA2021002220460192D3
:10379000FDF730FA204E1AE008250027204629467A
:1037A0003A46FDF727FA1B4829463A46FDF722FA22
:1037B000022120463A46FDF71DFA0A20FDF748F996
:1037C000102101222046FDF715FA0198307030785B
:1037D0006228E1D06128FAD1082501272046294630
:1037E0003A46FDF707FA0B4829463A46FDF702FA32
:1037F000022120463A46FDF7FDF9102120463A46BF
:10380000FDF7F8F90A20FDF723F920210022D9E776
:103810007C100020000400489C13002002E008C82F
:10382000121F08C1002AFAD170477047002001E03A
:1038300001C1121F002AFBD170475553423320416A
:1038400063746976617465640D0A0000703800085D
:103850000000002088010000B40100083839000889
:1038600088010020181600002C3800080000000015
:1038700013C5211B08F5041301221B0821041A514A
:10388000041AA5101AD1041113127A13A51E1B08CD
:1038900007041B9F1F10311A4B0C1B771D201904A6
:1038A000C11A8D181A81041A99041A750414090290
:1038B0004313020125C03209041B01020B13052426
:1038C0001610010524011009010424020205240632
:1038D00017010705820308151009040133020A2E97
:1038E0000705010240072A810711093744113A02EE
:1038F000441907112B0A0606112B4001502A0750C4
:103900000A3B04941A12171302021E408304405704
:103910004D1B0203591375021B0871041A0D041A7A
:103920009904071F040309041A032AC292120829E2
:0839300006198E1100000000D1
:04000005080000C12E
:00000001FF
