:020000040800F2
:10000000A00E0020D500000839170008D114000800
:1000100000000000000000000000000000000000E0
:100020000000000000000000000000003D17000874
:1000300000000000000000003B1700083F17000808
:100040000501000805010008050100080501000878
:100050000501000805010008050100080501000868
:100060000501000805010008050100080501000858
:100070000501000805010008050100080501000848
:100080000501000800000000000000000501000854
:100090000000000005010008050100080501000836
:1000A0000000000005010008050100080501000826
:1000B0000501000800000000BD020008A92A000890
:1000C0000348854600F05AF8004800475D2B0008B9
:1000D000A00E00200C4880F308880C480168090E27
:1000E0000B4A914205D10B480B4901600B480C4962
:1000F00001600C4880470C480047FEE7FEE7FEE73A
:10010000FEE7FEE7FEE70000A00E0020040000006E
:100110001F00000018100240010000000000014014
:1001200000000000DD170008C100000830B50B46D4
:10013000014600202022012409E00D46D5409D42C1
:1001400005D31D469540491B254695404019154647
:10015000521E002DF1DC30BDD2B201E00270401C15
:10016000491EFBD270470022F6E710B513460A4637
:1001700004461946FFF7F0FF204610BD064C012546
:10018000064E05E0E36807CC2B430C3C984710343F
:10019000B442F7D3FFF798FF5C2C00087C2C0008D2
:1001A00070B58C180578401C6B075B0F01D1037884
:1001B000401C2A1106D10278401C03E006780E701C
:1001C000401C491C5B1EF9D12B0705D40023521E8D
:1001D0000DD40B70491CFAE70378401CCB1A921C13
:1001E00003E01D780D70491C5B1C521EF9D5A1421D
:1001F000D8D3002070BD0020704700207047000059
:10020000B0B52D4C0549002520462A4601F0E7FBF4
:100210000349204601F0DBFB2846B0BDFC0400206A
:1002200098040020B0B504460C4D2846214601F044
:10023000CEFB284601F0ACFB2078322804D03328CE
:1002400009D162240BA001E0612405A0102100F077
:100250001DF80D4804700020B0BDC04660050020A8
:1002600055534232204163746976617465640D0AA6
:100270000000000055534233204163746976617475
:1002800065640D0A000000008001002010B50A46D8
:1002900001465720C000084B185885239B00C058C2
:1002A000002801D0012010BD034C204601F097FB2F
:1002B000204601F0F4FB10BD6005002080B5024827
:1002C00000F0FCF880BDC046CC0100207047202221
:1002D000825C521E012A03D800681430002202E01A
:1002E00001229104243003680B43036010467047D9
:1002F000FFB50246012015682023D35C5B1E012B4D
:1003000028D84002281803680122134303604E696D
:100310001F24344002921346A340C4699C43C46125
:10032000DC430394CF69012F19D0002F32D1C76865
:10033000039C2740C760F700EC1901948C88CF68B4
:100340003F04E41900940927BF01019C009AE2517F
:100350000F4616E08104536A0B43536237E0C468CA
:100360001C43C460F4002C1901948F880C68240489
:100370003C1900940927BF01019C009AE2510F46E5
:100380000C37F4002C193D888E683604AD1991267F
:10039000B600A55145688C69002C01D01D4301E0D1
:1003A000039C2540456045690C69002C01D01D4324
:1003B00001E0039C25404561096A012902D1C16918
:1003C0001943C1610168029A91430160002004B0A1
:1003D000F0BD7047FCB52024055D6D1E012D04D8CD
:1003E0000668002905D0356904E001218B0424301A
:1003F0005EE0F568AD0711D0019400910C0136194B
:100400001B273F01F15904250D409560F119F7595B
:10041000002D07D10D46790D116006E02430012131
:100420004B0545E00D46F90851602946296802252B
:100430000D40D5606D21890075580F272F40176139
:1004400075582D0AEDB295617158090C516137212B
:10045000C90072581A70026812195258120A5A705A
:10046000026812195258120C9A70026812195158E7
:10047000090ED970016809196F2292008958197103
:10048000016809198958090A5971016809198958B7
:10049000090C9971016809198958090ED971006808
:1004A0000099002901D0103000E00C300021019BA0
:1004B00002681A4302600846FCBD0000F0B589B02E
:1004C000044600684669416807918568C368016908
:1004D0000491012779020291F903019139040591F0
:1004E0007904039181690091F10702D100200890FD
:1004F00041E000210891E90715D08760A80708D4DA
:1005000068070CD428070CD42046069300F021FA83
:1005100003E02046069300F01DFA069B03E0F80274
:1005200000E038030890E80516D538022168886095
:100530000298054205D02046069300F00DFA069B6E
:100540000AE0680501D5780303E0280500D4B2E08D
:10055000B803089909180891059805420BD001467F
:10056000206881600398054200D194E020461D4632
:1005700000F0F4F92B461022300708D51846104039
:1005800005D02068C26008980299084308900825A1
:100590007007069207D52B4005D02068C56020461D
:1005A00000F062F9069AB00707D52068C068800796
:1005B00003D0204600F05AF9069A700608D5049830
:1005C000104005D020680261B802089901430891E3
:1005D000B00608D50498284005D02068056120465B
:1005E00000F088F9069AF00607D5206800698007B0
:1005F00003D0204600F07FF9069A0398064207D000
:100600000798104004D020684260204600F074F93A
:100610000598064207D00798284004D02068456016
:10062000204600F09CF90198064204D00798400744
:1006300003D4089F50E0089F51E038023146014042
:10064000090A009A1140089F0F439107394601D5C6
:1006500002213943029A164200D00F4600994907F9
:10066000394601D504213943720500D50F463105BD
:1006700032D57021009A0A402ED0103A1209052A6C
:1006800026D8C0467A4412795200974402191B1D9D
:100690001F202F431CE0680306D4280307D42046FC
:1006A0001D4600F05AF965E70898019901E008989D
:1006B000059908431BE72046069300F04CF93EE7F6
:1006C000069804E0202002E0402000E0802007435C
:1006D000206882698A438261206804214160002F7A
:1006E00005D0606A384360622046FFF772FE09B0A9
:1006F000F0BDF8B500281BD004462027C05D0028B7
:1007000002D1204600F070F82646203620680168A5
:1007100002229143016000F0F5F905462068416826
:10072000890707D500F0EEF9401B0B28F6D312E03D
:100730000120F8BD0168012200921143016000F020
:10074000E1F9054620684168C9070BD100F0DAF9E4
:10075000401B0B28F6D301204104626A0A436262FF
:1007600005213FE001688022237E012B01D09143C7
:1007700000E01143016001684022637E012B01D03B
:10078000914300E0114301600168A27E012A01D07B
:10079000B94300E03943016001681022E37E012B78
:1007A00001D0114300E09143016001680822237FDA
:1007B000012B01D0914300E0114301600168042244
:1007C000637F012B01D0914300E011430160271D9D
:1007D000AECF13432B433B43491E1943C161002055
:1007E000606200993170F8BD70B586B0044601A80A
:1007F0001421FFF7B8FC2068194988422ED1012640
:10080000700618498A6802438A608A68024000922A
:100810000098B504086828430860086828400090DC
:1008200004200590002403940220029003200490E9
:10083000000201900098AE4801A900F0A1F82846F6
:1008400000F064F9F00400F061F91E252846214605
:10085000224600F0CBF9284600F0BCF906B070BD86
:1008600000640040141002407047000010B5164CA0
:10087000002121632246303223461033FFF7AAFDC0
:10088000207C022806D16120207010A01021FFF7E3
:10089000FDFC207C032805D16220207010A01021CF
:1008A000FFF7F4FCFF201230216B81420BD19048FE
:1008B00008210024224600F01DF90920C00602216B
:1008C000224600F017F910BD800100205553423236
:1008D000204163746976617465640D0A000000004C
:1008E00055534233204163746976617465640D0A1F
:1008F00000000000704770477047F8B5044620209C
:10090000205C01281BD12746203702203870206840
:1009100001680125A943016000F0F4F8064620684B
:100920004068C00711D000F0EDF8801B0B28F6D30B
:100930006804616A014361620520387007E001259F
:10094000E804616A0143616201E0002565622846AE
:10095000F8BD7047704770477047704770477047E1
:10096000B0B5044600F0CEF80546601C02D08C48B5
:100970000078041900F0C6F8401BA042FAD3B0BDBD
:10098000F0B589B0564A0590904201D0052000E0AC
:1009900002200090002007460790034602910E684F
:1009A0003046D84000D198E0012504959D402E4066
:1009B00000D18CE006934A68102010431228059C51
:1009C000039710D108461C2139400F228A40069B0C
:1009D000DF08BF00E7193B6A934302698A401A4364
:1009E0003A62039F426803231146194007988140E9
:1009F000019383402068984308432060D943122A1A
:100A000015D804989040384B184210D0059CA06827
:100A10000840029BDB68079FBB40039F0343A36022
:100A20001009069B98406368AB4303436360059CD1
:100A3000E068084002998B68079DAB400343E36080
:100A4000D000284C069B42D561490868049A10439F
:100A500008600868104008900C253D400F20A84011
:100A600001998B43089A21495A5882435B180920FF
:100A7000C0060599814206D01D488142009F029917
:100A800003D1049F01E000270299AF4017431F6084
:100A900023684A68D00301D5334300E0B343039F82
:100AA00023606368900301D5334300E0B343636080
:100AB000A368D00201D5334300E0B343A360E368E9
:100AC000900201D5334300E0B343E360069B0798EF
:100AD000801C07903F1D5B1C61E709B0F0BDC0465C
:100AE000000800480004014006000600080001401C
:100AF00000040048002A01D0182200E0282281507A
:100B0000704700000E4800687047C04681B0304909
:100B10000A6801231A430A60096819400091009984
:100B200002490A6802430A6001B0704700000140B0
:100B30001B48007802490A68101808607047C046D0
:100B4000980A002010B50648016810220A43026086
:100B50000024204600F006F800F026F8204610BDDC
:100B60000020024070B504467D20C0000C4E317854
:100B7000FFF7DCFA01460B480068FFF7D7FA00F0F0
:100B80008DFC0125032C08D8002806D10025E84358
:100B900021462A4600F02AF87460284670BDC046F7
:100BA000000000202400002082B0094801680122D2
:100BB00011430160016811400191019911074268D8
:100BC0000A434260406808400090009802B07047B5
:100BD00018100240002805D41F210840012181403F
:100BE000014801607047C04600E100E080B501F0B7
:100BF00095FF80BDF0B502685423D15A01242143EA
:100C0000D15213214D0100214155D65A02273743B5
:100C1000D752401984600846F0BD704710B50C06E5
:100C200004D54907090E4018283004E0490140184E
:100C30002521C9004018002A05D003810121017334
:100C4000190C418102E0C38000210173002010BD16
:100C500080B52722120183584A018018C26B1846BA
:100C600001F065F880BD80B52722120183584A0142
:100C700080184F2292008258184601F0B9F880BDC2
:100C800010B507220A40090609D451014118FF2373
:100C90002A330024CC542523DB00C91805E0510178
:100CA000411829230124CC5428310A704522D2004E
:100CB000835C012B01D1022010BD84180122227017
:100CC000006801F00FFD0020207010BDB0B50F22AC
:100CD0000A4043689A4201D9012424E007220A40CD
:100CE000090609D451014118FF232A330024CC54AA
:100CF0002523DB00C91805E05101411829230124EF
:100D0000CC54283100248C700A704522D200835CB8
:100D1000012B01D1022406E0851801222A70006807
:100D200001F06EFD2C702046B0BD4907090E401839
:100D3000512189004058704770B507240C400906BE
:100D400009D461014118FF252A3500264E55252575
:100D5000ED00491905E061014118292501264E558C
:100D600028310A61CB700C704A78002A00D0CC81FF
:100D7000022B01D100220A714522D200835C012B93
:100D800001D1022070BD841801222270006801F098
:100D90009DFB0020207070BDB0B507240C406101A0
:100DA00041182525ED004C55491900240D461435F0
:100DB0001CC54C70006801F075FD2046B0BD70B5D3
:100DC000044607250D404068854201D9012070BDC9
:100DD000080609D448012018FF212A310022425474
:100DE0002521C900411805E06801211829200122A8
:100DF0000A5428310D70012088704522D200A35C6E
:100E0000012B01D1022070BDA6183070206801F0BE
:100E10002DFD002D05D1232000012118206801F0AF
:100E2000EDFC0020307070BDB0B507240C406101AE
:100E3000411828254C55283100240D4614351CC571
:100E400001224A70006801F02DFD2046B0BD00006F
:100E5000F0B58BB004461320039020680125E90209
:100E6000069101F029FE00040894049500D458E18D
:100E70002520C000079020180290E8030A90204621
:100E8000243005902320000120180190206844217F
:100E9000415E002900D445E1014644310B880F250D
:100EA0001D402AD0AA00865A0A9B1E4200D1C2E0E9
:100EB00082181388F54F3B40274680241C4314803A
:100EC0006A01BC18079AA3184D229200A25C002A5E
:100ED00009935CD01A789300C35AD20012188989FA
:100EE0005118EB4AF132134267D0E64A8F5AE6496D
:100EF0000F4072D00399090167E00288DB0627D40E
:100F0000E24B1A400A9B1A430280DE4A8018898904
:100F10004018059D2979C900405ADB4908406064A2
:100F2000E16B0818E063002720463946FFF790FE82
:100F300028780028AAD0206C0028A7D1059B187813
:100F400080210143C8B221684C2288521F709DE75E
:100F5000069B1A4200D196E0CA4A12188989511894
:100F6000029D2A78D20089188B88C7490B40EB6113
:100F7000EA88019901F0A3FD20680188C34A114065
:100F800080220A430280204600F055FA7EE7BD4ADF
:100F90001218898951181A78D20089188F88BA498D
:100FA0000F4000D1A6E097214900625A4F218900E5
:100FB00061583B4601F083FD1CE0B24A51188F880E
:100FC000B1490F4009D099214900625A4F21890047
:100FD00061583B4601F073FD00E00027099908982D
:100FE000006809788900425AA84B1A400A9BC0330E
:100FF00013434352512080002158C91921504F20DA
:1010000080002158CA192250052080012358002B46
:1010100004D02720C0002058B84206D9099801788A
:10102000089C2046FFF71FFE05E009980178089C00
:101030002046FFF7B1FE300600D427E768004000E5
:1010400021680A5A914B1A400A9B1A430A528D484A
:1010500008185022895A4018690163182821595CE0
:10106000CA00805A884A10402833D8615A69121839
:101070005A619B692046002B02D0FFF7D5FE05E799
:10108000FFF7E6FD02E70A9B1A4200D1FEE602885E
:101090007E4B1A408023134303807A4A1218121D94
:1010A00089895118029E3378DB00CB5A76490B4070
:1010B000F36111D0716900290ED0F28801F0FFFCB4
:1010C000F06971690818706100212046FFF7CBFDB7
:1010D00020686C4909180A1D049D5021415A336942
:1010E000002B09D03E2B0BD85C082B40E318089C42
:1010F0009B020EE000277DE78B5A634D2B4006E0F4
:10110000DC065B09002C089C00D15B1E9B020A9D3B
:101110002B438B5201885E4A11405E4A5140018048
:10112000B4E6206801F0C8FC5649891E08420CD07C
:1011300020684421425A584B13404352204600F045
:101140003BF90021204600F062F9206801F0B4FC70
:10115000014620684904254604D54421425A4F4B94
:101160001340435203994C0101F0A6FC0146286844
:10117000890404D54421425A494B134043522C1947
:1011800001F09AFC01462868C9041AD54021425A48
:1011900004239A434252425A08239A4342522078E7
:1011A000012804D1002121700898FFF736FD089D21
:1011B000284600F013F928684421425A394B13405D
:1011C0004352049D01F078FC06990842089F19D00B
:1011D0000498050338684021425A082313434352B8
:1011E000024640329388304E1E409680425A042375
:1011F0001343435201F060FC2842049D02D138465B
:1012000000F03AF9386801F057FC00061FD538683D
:101210004421425A80239A4342522178002903D024
:10122000384600F029F912E04030018804220A43D0
:101230000280018808220A4302802570808A800883
:101240003C210140616038462946FFF7E6FC3868DA
:1012500001F032FC800508D538684421425A134B0E
:1012600013404352384600F0CBF8386801F024FCB4
:10127000C00505D538684421425A0D4B13404352EE
:101280000BB0F0BD02040000FF0300000F0F0000D0
:101290000F3F000080B00000FFFB0000FFBF000018
:1012A000FFDF0000FFEF0000FFF70000FFFD000080
:1012B000FFFE0000F0B589B000285AD00446452052
:1012C000C00026187078002804D100203070204615
:1012D00000F054F8204624300890032070702068F5
:1012E00001F082FA61680020C2B291420ED9530126
:1012F000E318282558552833DA8101225A70002234
:101300001A615A619A61DA70401CEDE70020C2B29E
:1013100091420DD95201A2182523DB00D054D218D6
:101320000023136153619361D3705370401CEEE747
:10133000A0680590E0680690256907966669A76928
:10134000E269236A2068009501960297039204934C
:10135000059A069B01F038FA0025089805700120CF
:1013600007994870E069012804D12046FFF742FC44
:1013700000E00125284609B0F0BD00001CB500685A
:101380000B49884200D01CBD0120C00509490A68EC
:1013900002430A6009680140019101981F2400215D
:1013A00020460A46FFF722FC2046FFF713FC1CBD2F
:1013B000005C00401C100240B0B504468068022862
:1013C00001D0FEF783FF272005016059012100F0BD
:1013D000FBFD605900F0B8FDB0BD000010B504463B
:1013E0008069002806D02C480168062291430160DC
:1013F00000F0AAF927200001205800F0CDFD10BD13
:1014000080B527210901405800F0D0FD80BD10B5FE
:101410004522D200835C012B01D1022010BD84182B
:1014200002462432117001222270006801F05CFB38
:101430000020207010BD80B52721090142582321CA
:1014400009014118104600F0CBFD80BDB0B504463F
:101450004520C000215C012901D10220B0BD251822
:1014600001202870206801F0A7F9206801F012FB24
:1014700000202870B0BD000010B5044627200001F0
:10148000205800F0EFFDA069002804D00248016850
:1014900006220A43026010BD10ED00E0401E010E5E
:1014A00001D0012070470749074A50600748036888
:1014B0000B40032189075918016000209060072123
:1014C00011607047FFFFFF0010E000E020ED00E03A
:1014D000FEE7B0B5520000239A420ED0450F040F2C
:1014E000052D01D3373400E03034CC5401241C43A3
:1014F00000250D559B1C0001EEE7B0BD81B00549EC
:101500000A6802430A60096801400091009801B02E
:101510007047C04614100240F8B500260B681C4600
:10152000F4403AD00124B440234034D000961C4605
:101530005C434D6826466E43032767430268BA43FF
:1015400032430260FE436A1E012A05D88A6862435C
:1015500087683740174387600A696243C768374026
:101560001743C760022D009E15D14D69FF2B08D887
:10157000644365430F226243036A93432B43036230
:1015800009E01A0A5243524355430F235343426A18
:101590009A432A434262761CC0E74A68521E012AD7
:1015A00005D8C968594342689A430A4342600020FB
:1015B000F8BD0000014908607047C04624000020C3
:1015C000F0B58BB06820184E00273752032017491A
:1015D00001231A051D4600938304F1643065776585
:1015E000B765F3653266776634464C342046FFF7BC
:1015F00080F808950797069701AD14212846FEF755
:10160000B2FD0A970098099020462946FEF770FE21
:101610002C2037540820B7610099F1613762776256
:10162000B0620BB0F0BDC0468001002000640040F5
:10163000F0B58BB000270A9701246004FFF75EFF26
:10164000A004FFF75BFF0920C6060220B062082154
:101650000491B16210220192B26220220392B2621E
:101660001E4A91620997089705A991C105AD1C4AC8
:101670003046294690470997089703200290079023
:1016800006940498059030462946154A90470997D4
:101690000897079706940198059030462946104A06
:1016A00090470F4A09970897079706940398059063
:1016B00030462946164690470997069705940748ED
:1016C0002946B0470997089702980790069404980E
:1016D000059002482946B0470BB0F0BD0004004811
:1016E0001915000880B510481049002200F0F6FADC
:1016F000002801D0FEF7EAFD0B480D4900F0D8FCA8
:10170000002801D0FEF7E2FD07480A4900F056F92B
:10171000002801D0FEF7DAFD034800F0E0FC0028C5
:1017200001D0FEF7D3FD80BD600500200800002039
:10173000280000204C01002070477047704780B59A
:10174000FFF7F6F980BD000010B521490A680120B5
:1017500002430A600A68D207FCD001041D4C226BC8
:101760000A432263216B8903FCD57B21C9032268CC
:101770008A430321C90351182160A16A01430E2243
:101780009143A1620206211F0B6813430B600A6894
:101790009201FCD52168F0229143216007210902C2
:1017A00022688A432260216802220A43824322601F
:1017B00020680C2101400829FAD10748FFF7FAFEFA
:1017C0000020FFF7CFF9E06A80218843E06210BD76
:1017D0000020024004100240006CDC027047F8B5A3
:1017E0000C4605465720C1006F58002F13D0142017
:1017F00060432E18F069002808D0691889686201D2
:101800008918896BFEF792FC002906D0852080009C
:1018100000263E500BE0022609E01C36304600262A
:101820000660284621463246334600F024FC304606
:10183000F8BD70B504465720C600A559204600F0F3
:1018400017FB832189006850A05900280AD0A219EB
:10185000691881208000281800685268D268904773
:10186000002070BD022070BD70B5044681210E4E6F
:10187000B0470025E56201212046B0475B2080008B
:10188000255082212046B04725645720C0002158AA
:10189000002907D02418606840688047206800F05D
:1018A0000FFE2560002070BD1D1D000810B55721DA
:1018B000C90042185368002B0BD041580120400248
:1018C0000C182078FF2804D062789B689847FF2086
:1018D0002070002010BD00000A21018000487047E0
:1018E000E80000204321018000487047600000208C
:1018F0004321018000487047A4000020432101805B
:1019000000487047F4000020FEB50446007C012624
:1019100077020028009700D04027812102910222FF
:10192000019220463B46194DA847E66220463146C3
:10193000019A3B46154DA8475B2080002650822126
:10194000032208232046A8472664029885002846DB
:10195000183000F0B7FD07465720C0002750002F71
:1019600011D0201840680068804778190026066169
:101970004661207C0028009B00D040237A59012139
:10198000204600F0D8FA3046FEBDC0461F1F0008B2
:1019900010B55721C9004258002A05D0037C012107
:1019A000002B03D0402302E0022010BD4B02812413
:1019B000A400125900F0BFFA002010BD002904D085
:1019C000AF229200815000207047022070475722BA
:1019D000D200805881229200815000207047572306
:1019E000DB00C0584123DB00C150C01882600020DA
:1019F0007047FEB50E4605465720C0002F5802A876
:101A00000024047001A80480A720800029183078E1
:101A10006022024011D0202A3AD1F288002A19D03F
:101A200000061FD4012040023818427071780170FE
:101A30002846394600F074F82FE070780B281AD049
:101A40000A281CD0002823D10878032820D101A916
:101A5000022219E07078096A8B6800243146224618
:101A600098471AE07078096A8B6839469847F28877
:101A70002846394609E0087803280ED008E008789F
:101A8000032805D102A90122284600F068F804E0E5
:101A90002846314600F03AF802242046FEBD10B533
:101AA0005721C9004158002908D04122D2001346CD
:101AB0000C33CC58002C03D0012010BD022010BDE7
:101AC0000124CC508B189B6803638A589BB28121F8
:101AD00000F0D1FA002010BD80B5AD2292008258EE
:101AE00052689047002080BD10B513460A46002476
:101AF000214600F020FA204610BD10B513460A46D4
:101B00000024214600F0B7FA204610BD10B5044667
:101B1000802100F095FA0021204600F091FA10BDD6
:101B2000B0B513460A46572189004350A524A400A6
:101B30000325055141184B600024214600F0FBF9B4
:101B40002046B0BD10B5A5218900052242500024D1
:101B500021462246234600F0EEF9204610BD10B57E
:101B600013460A46A521890002244450C36103623A
:101B70000024214600F07FFA204610BD10B5A521B3
:101B8000890004224250002421462246234600F0C8
:101B900072FA204610BD000010B50A4603A02A4C78
:101BA000214600F06DF8204610BDC0464344432056
:101BB000436F6E6669670000122008800048704716
:101BC0003801002010B50A4603A01F4C214600F042
:101BD00057F8204610BDC04643444320496E746503
:101BE0007266616365000000042008800048704749
:101BF0005C01002010B50A4603A0134C214600F0FA
:101C00003FF8204610BDC04653544D6963726F655E
:101C10006C656374726F6E696373000010B50A4679
:101C200003A0094C214600F02BF8204610BDC04609
:101C300053544D3332205669727475616C20436F72
:101C40006D506F7274000000F8010020B0B51A20CA
:101C50000880094908688A6810180BD04C68074D3D
:101C6000A91C0822FFF735FC12350422204629461C
:101C7000FFF72FFC0148B0BDACF7FF1F600100204B
:101C8000B0B500281CD0002304462578002D02D0D2
:101C9000641C5B1CF9E7DBB25B009B1C13800B70C0
:101CA000022203240123CC540378002B08D0D4B2A1
:101CB0000B5501231343DBB2921C401C0024F2E7B6
:101CC000B0BD0000032804D8C0000349C140C8B219
:101CD000704702207047C0460002010210B500287C
:101CE00011D0A7239B00C3189C69002C01D00024AD
:101CF0009C61002900D0596102700121197000F027
:101D0000BFF8002010BD022010BD80B50B2292014B
:101D10008058FEF7DBFFFFF7D5FF80BD80B50B22B3
:101D200092018058FEF7ACFFFFF7CCFF80BDF8B5FD
:101D30000446A5208000271800290AD0386A426985
:101D40000220002A53D03B7A032B50D120469047E3
:101D50004CE03868002814D0042812D002283FD163
:101D6000206A666AB04211D9801B206283B2204685
:101D700011461A46FFF7C1FE002120460A460B46CF
:101D80001BE08021204600F05BF929E0E569284648
:101D90003146FEF7CBF9B54212D3002910D178684D
:101DA00085420DD20025204629462A46FFF7A5FE8A
:101DB0007D60204629462A462B4600F0BCF80FE0FD
:101DC000386AC168002904D0387A032801D1204636
:101DD00088478021204600F033F92046FFF7B2FE05
:101DE000387B012802D100203873F8BD0020F8BDEF
:101DF00070B50546A5208000281800290BD0026A7E
:101E000092690224002A31D0007A03282ED1284674
:101E1000904700242AE001680024052914D00329F2
:101E200024D10B2149016B181E6859688E4211D9C3
:101E3000701A1860884200D3084683B228461146BB
:101E40001A46FFF751FE11E004602846214600F0D3
:101E5000F7F80BE0016A0969002904D0007A032829
:101E600001D1284688472846FFF788FE204670BDE6
:101E700080B50B2292018058FEF757FF80BD00000D
:101E8000F8B50B218A011B49815027231B01C8503B
:101E900000238B61CB610B6202230B610824164D7A
:101EA0000D604C608B6086180846FFF703FA002827
:101EB00001D0FEF70BFA3068002418230F4F21469B
:101EC0002246B8473068802158232246B8473068F8
:101ED0008121C0232246B847306801210D022B46DC
:101EE00010332246B8473068822122462B46B84735
:101EF0002046F8BD24080020005C00401D0C0008AE
:101F00000B22920180584A06120D8018090601D54D
:101F10002A3002E09521490040180078704710B53A
:101F200014460B22920180581A462346FEF704FFFE
:101F3000FFF7C8FE10BD10B50B24A4010059FEF731
:101F40002BFFFFF7BFFE10BDF8B504460025402665
:101F500029462A463346FFF7E2FF2B20C00001271F
:101F600027502018C660802120462A463346FFF7B6
:101F7000D6FFA52080002550201807726662A76151
:101F800005616560416A002904D0006A4268002149
:101F9000204690470020F8BDA7218900425C042A12
:101FA00002D14018417801700020704780B5A72108
:101FB0008900425C032A05D141188969C969002951
:101FC00000D08847002080BD01740020704780B594
:101FD0000B2292018058FFF71AFAFFF773FE80BDBB
:101FE000F8B50446A5208600A7193D4614352846B5
:101FF00000F04AF80120A0511048205A7860397D3D
:102000001F200840022808D001280BD000280ED13C
:102010002046294600F068F80EE02046294600F0E8
:102020007DF909E02046294600F021FA04E08020ED
:102030000140204600F004F80020F8BDAE02000088
:1020400080B50B2292018058FEF7B9FEFFF73AFEE9
:1020500080BD80B50B2189014058FFF7F7F9FFF7E4
:1020600031FE80BDA7218900425C042343544018FF
:1020700042700020704710B50B24A4010059FEF7F0
:10208000D3FEFFF71FFE10BD0A7802704A78427037
:102090008A78CB781B029A1842800A794B791B0206
:1020A0009A1882808A79C97909028918C180704793
:1020B000002904D0AD2292008150002070470220F8
:1020C000704780B5AD2292008258002A05D0126870
:1020D0009047411E8841400080BD022080BD80B5F0
:1020E000FFF7B7FF002080BD7CB50D460446097898
:1020F00060200840A7218900661800280AD04028DF
:1021000002D0202800D071E0B069826820462946BC
:1021100090476EE06878092800D967E07844007934
:10212000400087440414631D63233D63515D307890
:10213000401E02285AD8E888022857D1B068411EAC
:1021400088414000E06021460C31022262E0307894
:10215000401E02284AD8688801284AD1002003E09E
:102160006888012845D10120B060CDE0A88800280A
:102170003CD1E888002839D168887F2836D8317862
:10218000032933D0B070C5B220462946FFF71FFFA0
:102190002046FFF7F3FC002D00D1B9E00220B8E0A3
:1021A00001A8002101806888010A491E06291DD85E
:1021B0007944097949008F440331371919454D0095
:1021C000207C71690A6889E0E88801280ED130789E
:1021D000411E02291AD20020A0602146083118E0D1
:1021E00068884D4D2870C1B2022904D32046FFF7FC
:1021F0008DFC00207CBD3078032835D0022844D1E6
:10220000002900D180E00320307037E00328EDD1B1
:10221000211D01222046FFF7A2FCEAE7B069217CDC
:1022200000293AD0C16A39E0C0B20528DED8C046DC
:102230007844007940008744023F4245484B70692A
:10224000426847E0207C0028D0D1B069416B01A8EA
:10225000884745E0207C0028C8D1B069016B01A8FF
:102260008847014607201DE000291DD0606888428C
:102270004AD0C1B22046FFF72FFC29786160204682
:10228000FFF71FFF0228B1D03EE02046FFF73EFCDB
:1022900029782046FFF720FCABE7816A01A8884730
:1022A0000146022048701CE000206060022030706F
:1022B0002046FFF711FC27E0706982680AE0706928
:1022C000C26807E07069026904E07069426901E070
:1022D00070698269002A00D188E7207C01A99047B3
:1022E000014601A80288002A0AD0E888002807D001
:1022F000824200D3024601A802802046FFF72FFC4D
:10230000E888002800D074E72046FFF737FC70E724
:10231000012030706DE7C046F4010020B0B50A46D8
:102320000446087860210140A72080002018002979
:1023300009D0402901D0202975D1806983682046C1
:102340001146984772E0202906D1806983682046AB
:102350001146984705466AE011795378002B17D04B
:10236000012B27D0032B5ED10078032825D150887C
:10237000002809D180200843802805D0D088002873
:1023800002D12046FFF75CFE2046FFF7F7FB4DE049
:10239000007803281FD0022845D1802008438028D8
:1023A00041D17F20084014224243A318080640D59B
:1023B000143341E00078032818D0022833D180205C
:1023C000084380282FD02046FFF73AFE8021204680
:1023D000FFF736FE2AE00F230B4080200A46142523
:1023E0005D43631902400ED09B690FE050880025C1
:1023F00000281CD1480602D02046FFF786FC204664
:10240000FFF7BCFB13E02B25ED005B59002B0AD036
:102410007F230B4014255D436519002A14D15522F2
:102420009200AD1811E02046FFF770FB002528460A
:10243000B0BD552080001B1800251D6002222046DB
:102440001946FFF78CFBF2E714350843802801D1C9
:10245000002005E02046FFF753FD0028F8D00120BA
:102460002860022220462946FFF779FBDEE7B0B557
:102470000D46044609786020084003D0402801D06A
:1024800020280AD1A720800020180178491E02299F
:1024900003D8A9880906490E04D02046FFF736FB69
:1024A0000020B0BD806982682046294690470028F8
:1024B000F6D1E8880028F3D12046FFF75FFBEFE76D
:1024C000704700000048704778020020F0B586B0E1
:1024D00002460F78B8001318105A7D4D0540CC788D
:1024E000032C03940AD800200490C0467C4424792D
:1024F0006400A74401060C09012006E001200490B5
:1025000005E07448401C01E0032040020543A94C4B
:1025100025431D801888D14D28403843204318801A
:10252000087B0028059347D018886B4E06406B48FF
:102530003018059B18805020145A02940124A502DB
:102540005519FF00EB190193E4430E8926400092D0
:10255000029A019B9E52059E009A105A3A1DAA1893
:102560004B8923401352CD4A1346F133308818402B
:102570004978002942D0BB490028049C8D4DB74FB3
:1025800003D030883840084330803088400605D575
:10259000308838402B4640330343338030883840FE
:1025A000084330803037308838400399012948D0BB
:1025B00029462031484045E05020165A0124A00207
:1025C00010188519FF004E78002E40D0C888A0430F
:1025D000E853059E30884006764AA04B05D53088E2
:1025E0001840114640310143318030333188194061
:1025F00003980128049C3ED1114364E00028049C08
:102600006C4B964D04D03088284096490143318068
:102610003088400605D530882840194640310143AE
:10262000318030882840194640310143318030885C
:1026300010408D494140318030353188294019435F
:1026400041E0284330803188114029433BE050323B
:1026500004233B43CE88A643EE5206263E43801910
:102660000F691188002F08D03E2F10D83C407A08FF
:102670001219950207E0203224E00A5A154E16403E
:102680004C4D803D3543059E049C744B0BE0FE068B
:102690007A09002E059E049C464D704B00D1521EB7
:1026A0009202803D15430D523188F3480246F132C3
:1026B000114204D031881940F34A0A4332803288EB
:1026C0000240074951403180204606B0F0BDC04667
:1026D0008F89FFFFFF0300000F0E000080810000C4
:1026E00080B0FFFF70B50A789200845A80184B784A
:1026F0000A7B3049002A21D0DF4A1546F1352C40AB
:10270000002B28D0DF4BE04D002C03D004881C4068
:102710002C4304800488640605D504881C400E46BA
:1027200040362643068004881C402C430480303306
:1027300004881C400C430480134634E0002B27D04F
:10274000D04A1346303364062DD5048814400A4617
:102750004032224326E0CB4B002C04D004881C409E
:10276000C94D254305800488640605D504881C40AE
:102770000D4640352543058004881C400D464035F4
:1027800025430580048814400C43048030330AE05C
:10279000B94B1A46F132144205D00288B94C1440A4
:1027A000B94AA218028002881A400A430280002017
:1027B00070BDC046808000005821425A0123DB03CF
:1027C000134343520020704710B54022012181522B
:1027D000002181520346403399801982835AB14CBB
:1027E0001C438452084610BD4021425A024B1340FC
:1027F000435200207047C0467F40000000207047D1
:10280000B0B50A7B002A27D10A789300C25AC018B3
:102810004B78002B10D052069A4B114A05D50488EC
:102820001C401546203525430580C978012913D061
:102830003033018819400DE08F490B46F1331A42BD
:1028400005D002888F4B13408F4A9A180280028865
:102850000A408A49514001800020B0BD0F0F00009E
:10286000A080000080C0000080B0000010B54B7850
:10287000002B01D0084A00E0064A002B01D0084B8B
:1028800000E07D4B09788900445A1C405440445272
:10289000002010BD8090FFFF9080FFFF0F3F0000E1
:1028A0003F0F0000F0B587B00D4604460E698869F9
:1028B000811B00D20021A961B04200D80646297BC5
:1028C0006878012814D1002918D029788800225A64
:1028D0005020205A201801239B02C0185206C9001C
:1028E000002A31D40222114346522846083030E0F3
:1028F000002917D000283ED028787BE0EA88696953
:10290000B3B2204600F0F7F85020205A211828785A
:10291000C200921C8918012292028E525B4AB03288
:10292000584950E05020205A20180123990241189C
:102930002878C200921D002E4DD03E2E51D8334033
:102940007508EB189B0254E00622114346522846B4
:102950000A3069690288B3B2204600F0CCF8687882
:10296000002826D0012830D128788200A35A454972
:102970000B40454D23E05020205A0127B902611831
:1029800008180690234650332878C500AA1C002E4C
:10299000059139D0039304920195FD0302953E2ED3
:1029A00045D835463D40710849198D020699019B6D
:1029B00047E028788200A35A32490B40344D5B1916
:1029C000A352324AB032303116E0304AB0322D498B
:1029D0003031287810E0555A294E2E40DB03F31889
:1029E00007E0F7067509002F00D16D1EAD02DB036D
:1029F0002B4353522049214A8000235A0B40534015
:102A00002352002007B0F0BD0699515A1C4E3140A8
:102A1000FF03C919069E915306210D431988059A93
:102A200051184A5B164B1A40D2194A53E2E7F10695
:102A300072090029019B00D1521E950202990D4393
:102A40000699049A555206210B4303990988059A61
:102A500055180949094A3E2E04D837407608F61918
:102A6000B60207E0F7067609002F00D1761EB602FF
:102A7000029F3E435E53BFE70F3F000080B000005F
:102A8000FF0300000F0F000080C000000080FFFF68
:102A9000C08000004021425A024B134343520020A1
:102AA0007047C04680BF000080B50248FEF7D0F9ED
:102AB00080BDC046240800204421405A704710B50C
:102AC00080180122920280185A08002A07D0048830
:102AD0000C70240A4C70521E891C801CF5E7DA0722
:102AE00001D00088087010BD002902D14C2180223D
:102AF00042520020704710B58018012292028018BF
:102B00005A1C5208002A08D00B784C782402E3188B
:102B10000380891C521E801CF4E710BD002805D4D8
:102B20000322034693430C4A9A1806E00F22024000
:102B3000083A03239A43074BD2188007C00E890135
:102B4000C9B28140FF238340106898430843106056
:102B50007047C0461CED00E000E400E082B0FDF7E5
:102B6000F1FFFEF7F1FDFEF763FDFEF729FDFEF72D
:102B7000B9FD2F4C4C342046FDF7BFFE02210191D8
:102B80002046FDF7A4FB0920C40608260127294D8D
:102B9000204631463A46A847274831463A46A84794
:102BA000204601993A46A847102120463A46A847B0
:102BB0002021002220460192A8471D480078C1B27A
:102BC00062291AD06129FAD1082501272046294611
:102BD0003A46184EB047184829463A46B0470221AF
:102BE00020463A46B047102120463A46B0470A20D0
:102BF000FDF7B6FE2021002213E00825002720461D
:102C000029463A460B4EB0470B4829463A46B0474C
:102C1000022120463A46B0470A20FDF7A1FE1021C6
:102C200001222046B0470248019901700846C6E7D4
:102C300080010020F50A00080004004802E008C8EE
:102C4000121F08C1002AFAD170477047002001E026
:102C500001C1121F002AFBD170470000802C000820
:102C60000000002080010000A0010008402D0008A5
:102C700080010020200D00004C2C00080000000006
:102C80003201320413B91B1B08E9041AF504131DA1
:102C90001C1B084D041A990C1AC5041113127A133F
:102CA0000919140869181B08F308411AAD0C13DF41
:102CB000171B083308C11AF1101AE5041AFD041A8B
:102CC000D904140902431302011CC03209661B0116
:102CD000020B130524161001052401100901042418
:102CE00002020524061701070582030815100904CE
:102CF0000133020A2E0705010240072A8107110944
:102D00003744113A02441907112B0A0606112A40CA
:102D1000F02B0907500A3B04941A12171302021EE3
:102D200040830440574D1B02035919711408FB01DD
:102D30001B08F7041A250C071E040309041A0300D4
:04000005080000C12E
:00000001FF
